:020000040800F2
:100000007008002055020008ED2200089D1D000820
:10001000E92200084D040008F92B00080000000048
:100020000000000000000000000000006123000844
:1000300051040008000000005D230008B9230008F7
:100040006F0200086F0200086F0200086F020008CC
:100050006F0200086F0200086F0200086F020008BC
:100060006F0200086F0200086F0200086F020008AC
:100070006F0200086F0200086F0200086F0200089C
:100080006F0200086F0200086F0200086F0200088C
:100090006F0200086F0200086F0200086F0200087C
:1000A0006F0200086F0200086F0200086F0200086C
:1000B0006F0200086F0200086F0200086F0200085C
:1000C0006F0200086F0200086F0200086F0200084C
:1000D0006F0200086F0200086F0200086F0200083C
:1000E0006F0200086F0200086F0200086F0200082C
:1000F0006F0200086F0200086F0200086F0200081C
:100100006F0200086F0200086F0200086F0200080B
:100110006F0200086F0200086F0200086F020008FB
:100120006F0200086F0200086F0200086F020008EB
:100130006F02000800000000000000006F020008CD
:100140006F0200086F0200086F0200086F020008CB
:100150006F0200086F0200086F0200086F020008BB
:100160006F0200086F0200086F0200086F020008AB
:100170006F0200086F02000800000000000000008D
:100180006F0200086F02000800F002F800F052F859
:1001900014A696E8000CB244B344DA4501D100F04D
:1001A00049F8BAE80F000FA696E83000A5EB040561
:1001B00004EB0607AAEB0704A7F101074FEA1515A0
:1001C0004FEA3414A4F10104AC4201D300F032F838
:1001D00013F0010F18BFFB1A43F0010300F001F800
:1001E000DBE71847842C0000A42C0000103A24BF41
:1001F00078C878C1FAD8520724BF30C830C144BF8C
:1002000004680C6070470000704700000023002461
:1002100000250026103A28BF78C1FBD8520728BF16
:1002200030C148BF0B6070471FB502F003FE1FBD11
:1002300010B510BD00F0D0F81146FFF7F5FF02F041
:100240003FFD00F0EEF803B4FFF7F2FF03BC00F04F
:10025000F5F800000948804709480047FEE7FEE737
:10026000FEE7FEE7FEE7FEE7FEE7FEE7FEE7FEE766
:1002700004480549054A064B704700007D240008E4
:10028000890100087002002070080020700400201E
:100290007004002053EA020C00F069802DE9F04B55
:1002A0004FF00006002B1FBFB3FA83F503FA05F4E5
:1002B00024FA05F65E4012BF1643B2FA82F502FA3E
:1002C00005F4C5F120051EBF22FA05FC44EA0C0422
:1002D000203556EA044C4FEA144418BF641C4FF012
:1002E00000084FF00009904271EB030C39D300294C
:1002F00019BFB1FA81F701FA07F6B0FA80F700FAF0
:1003000007F6C7F120071EBF20FA07FC46EA0C06D5
:100310002037B6FBF4FCA7EB0507103F07F01F0BD7
:10032000CBF120062CFA06F60CFA0BFB44BFB346C1
:100330000026202FA4BF5E464FF0000B5BEA060CA0
:1003400008BF4FF0010B19EB0B0948EB0608ABFB9C
:10035000027C06FB02CC0BFB03CCC01B71EB0C0137
:10036000C1E70B46024641464846BDE8F08B13B54F
:10037000084318BF4FF0FF300146AFF30080BDE8DF
:100380001C4070474FF0000200B513469446964655
:10039000203922BFA0E80C50A0E80C50B1F1200198
:1003A000BFF4F7AF090728BFA0E80C5048BF0CC046
:1003B0005DF804EB890028BF40F8042B08BF7047A4
:1003C00048BF20F8022B11F0804F18BF00F8012B16
:1003D0007047704770477047754600F02BF8AE467F
:1003E00005006946534620F00700854618B020B541
:1003F000FFF73EFFBDE820404FF000064FF000073A
:100400004FF000084FF0000BAC46ACE8C009ACE878
:10041000C009ACE8C009ACE8C00921F007018D466D
:10042000704710B50446AFF300802046BDE8104089
:10043000FFF709BF0048704710000020014918204D
:10044000ABBEFEE72600020070470000FFE7FEE7B4
:100450007047000072B6FFE7FEE700008EB00D9017
:100460000C9100200A90099008900B90FFE70B98E0
:100470000F2800F2CC81FFE70B99012088400A90F9
:100480000C9800680A990840099009980A998842CE
:1004900040F0B881FFE70C98406800F003000128A5
:1004A00007D0FFE70C98406800F0030002282FD126
:1004B000FFE70D98806808900B984100032000FA30
:1004C00001F10898884308900C98C0680B9949007E
:1004D00000FA01F108980843089008980D9988607F
:1004E0000D98406808900B99012000FA01F10898D6
:1004F000884308900C984068C0F300100B9900FAEC
:1005000001F108980843089008980D994860FFE7A2
:100510000C98406800F00300032818D0FFE70D98FE
:10052000C06808900B984100032000FA01F1089878
:10053000884308900C9880680B99490000FA01F1F3
:1005400008980843089008980D99C860FFE70C9830
:10055000406800F00300022826D1FFE70D980B99B0
:100560006FF0030202EA51010844006A08900B98F8
:1005700000F0070081000F2000FA01F1089888437D
:1005800008900C9800690B9901F00701890000FAA6
:1005900001F108980843089008980D990B9B02EA0E
:1005A000530211440862FFE70D98006808900B9809
:1005B0004100032000FA01F10898884308900C9844
:1005C000406800F003000B99490000FA01F1089817
:1005D0000843089008980D9908600C988079800766
:1005E000002800F00E81FFE7FFE70020079043F6A8
:1005F0004400C4F20200016841F4804101600068D7
:1006000000F4804007900798FFE70B9820F0030064
:1006100043F60801C4F20101405808900B9800F01D
:10062000030081000F2000FA01F108988843089028
:100630000D980021C4F20201884203D1FFE7002097
:1006400006905EE00D9840F20041C4F2020188423B
:1006500003D1FFE70120059050E00D9840F600011E
:10066000C4F20201884203D1FFE70220049042E075
:100670000D9840F60041C4F20201884203D1FFE721
:100680000320039034E00D9841F20001C4F202010E
:10069000884203D1FFE70420029026E00D9841F242
:1006A0000041C4F20201884203D1FFE70520019016
:1006B00018E00D9841F60001C4F20201884203D10E
:1006C000FFE7062000900AE00D9941F60042C4F2CF
:1006D00002020820914208BF07200090FFE700981F
:1006E0000190FFE701980290FFE702980390FFE76F
:1006F00003980490FFE704980590FFE7059806909B
:10070000FFE70698C0B20B9901F00301890000FAD7
:1007100001F108980843089008980B9921F003010B
:1007200043F60802C4F20102885043F60840C4F2BE
:1007300001000068089009990898884308900C986F
:100740008079C006002805D5FFE709990898084375
:100750000890FFE7089843F60841C4F201010860D9
:1007600043F60C40C4F2010000680890099908980B
:10077000884308900C9880798006002805D5FFE70B
:100780000999089808430890FFE7089843F60C4138
:10079000C4F20101086043F60440C4F2010000689D
:1007A000089009990898884308900C9880798007E8
:1007B000002805D5FFE70999089808430890FFE746
:1007C000089843F60441C4F20101086043F6004072
:1007D000C4F20100006808900999089888430890BD
:1007E0000C988079C00728B1FFE709990898084359
:1007F0000890FFE7089843F60041C4F20101086041
:10080000FFE7FFE7FFE70B9801300B902FE60EB0F4
:100810007047000082B00190ADF802108DF8012001
:100820009DF8010028B1FFE7BDF802000199886139
:1008300005E0BDF80200000401998861FFE702B0FD
:100840007047000040F26820C2F200000068704764
:1008500040F20800C2F20000027840F26821C2F2C1
:1008600000010868104408607047000080B543F636
:100870000041C4F20201086840F400700860086892
:1008800040F480600860086840F4807008600320CD
:1008900000F080F80F2000F005F800F03BF8002091
:1008A00080BD000080B582B0009040F20000C2F22E
:1008B0000000006840F20801C2F200010A784FF41B
:1008C0007A71B1FBF2F1B0FBF1F000F09BFD20B1C9
:1008D000FFE701208DF8070018E000980F280DD8D9
:1008E000FFE700994FF0FF30002200F039F8009840
:1008F00040F20C01C2F20001086003E001208DF813
:10090000070003E000208DF80700FFE79DF80700CF
:1009100002B080BD82B0FFE70020019043F64400A2
:10092000C4F20200016841F480410160006800F4F3
:10093000804001900198FFE7FFE70020009043F618
:100940004000C4F20200016841F08051016000687B
:1009500000F0805000900098FFE702B07047000060
:1009600080B586B08DF817000491039200200290A4
:1009700002F044F902909DF9170001900298049941
:10098000039A01F0B5FC0146019802F03FF906B068
:1009900080BD000080B582B00190019802F058F946
:1009A00002B080BD80B584B002900191029820B958
:1009B000FFE701208DF80F0021E1019843F6004187
:1009C000C4F20201096801F00701884212D9FFE769
:1009D000019943F60040C4F202000170006800F083
:1009E00007000199884204D0FFE701208DF80F002D
:1009F00005E1FFE702980078800700282AD5FFE785
:100A0000029800784007002809D5FFE743F608015F
:100A1000C4F20201086840F4E0500860FFE7029861
:100A200000780007002809D5FFE743F60801C4F263
:100A30000201086840F460400860FFE743F60801DF
:100A4000C4F20201086820F0F000029A9268104394
:100A50000860FFE702980078C00700286ED0FFE723
:100A600002984068012811D1FFE743F60000C4F264
:100A70000200006800F400310020B0EB514F04D1B7
:100A8000FFE701208DF80F00B9E02CE002984068E4
:100A9000022805D0FFE702984068032811D1FFE73C
:100AA00043F60000C4F20200006800F0007100206C
:100AB000B0EB516F04D1FFE701208DF80F009EE0ED
:100AC00010E043F60000C4F20200006800F00201EA
:100AD0000020B0EB510F04D1FFE701208DF80F008B
:100AE0008DE0FFE7FFE743F60801C4F20201086862
:100AF00020F00300029A526810430860FFF7A2FE3C
:100B00000090FFE743F60800C4F20200006800F01E
:100B10000C0002994968B0EB810F0ED0FFE7FFF798
:100B200091FE0099401A41F28931884204D3FFE7CF
:100B300003208DF80F0062E0E4E7FFE7019843F639
:100B40000041C4F20201096801F00701884212D293
:100B5000FFE7019943F60040C4F20200017000680B
:100B600000F007000199884204D0FFE701208DF8CA
:100B70000F0044E0FFE702980078400700280CD5FA
:100B8000FFE743F60801C4F20201086820F4E050D0
:100B9000029AD26810430860FFE7029800780007C5
:100BA00000280DD5FFE743F60801C4F202010868EA
:100BB00020F46040029A126940EAC2000860FFE730
:100BC00000F04CF843F60801C4F202010968C9B20A
:100BD0000A0942F64E61C0F60001895CC84040F245
:100BE0000001C2F20001086040F20C00C2F20000F5
:100BF0000068FFF757FE00208DF80F00FFE79DF813
:100C00000F0004B080BD000040F20000C2F20000FE
:100C10000068704780B5FFF7F7FF43F60801C4F29C
:100C200002010968C1F3822242F65E61C0F600014A
:100C3000895CC84080BD000080B5FFF7E5FF43F642
:100C40000801C4F20201096889B24A0B42F65E61EA
:100C5000C0F60001895CC84080BD000080B586B048
:100C60000020059004900390029043F60800C4F21F
:100C70000200006800F00C000146019140B1FFE75E
:100C8000019804280AD0FFE7019808280CD04FE00B
:100C900042F20040C0F2F40002904FE047F64000FC
:100CA000C0F27D10029049E043F60400C4F2020055
:100CB000016801F03F01059100684002002813D54A
:100CC000FFE743F60400C4F202000068C0F3881096
:100CD00047F64001C0F27D11A0FB0101059A0023F7
:100CE000FFF7D8FA049012E043F60400C4F20200C1
:100CF0000068C0F3881042F20041C0F2F401A0FB8A
:100D00000101059A0023FFF7C5FA0490FFE743F6B7
:100D10000400C4F20200006800F44031022000EB3D
:100D2000D130039004980399B0FBF1F0029005E0F4
:100D300042F20040C0F2F4000290FFE7029806B0D1
:100D400080BD000080B586B00490049820B9FFE70C
:100D500001208DF8170050E304980078C0070028A0
:100D600000F0A580FFE743F60800C4F20200006827
:100D700000F00C00042813D0FFE743F60800C4F28B
:100D80000200006800F00C0008281ED1FFE743F6BF
:100D90000400C4F2020000684002002815D5FFE7F5
:100DA00043F60000C4F20200006800F400310020A5
:100DB000B0EB514F08D0FFE70498406820B9FFE737
:100DC00001208DF8170018E370E0FFE704984068F1
:100DD000B0F5803F09D1FFE743F60001C4F20201FC
:100DE000086840F48030086020E004984068B0F55E
:100DF000A02F0DD1FFE743F60001C4F202010868FD
:100E000040F480200860086840F4803008600CE0FE
:100E100043F60001C4F20201086820F48030086043
:100E2000086820F480200860FFE7FFE7FFE70498E8
:100E30004068E8B1FFE7FFF705FD0390FFE743F6E1
:100E40000000C4F20200006800F400310020B0EBA2
:100E5000514F0CD1FFE7FFF7F5FC0399401A6528C5
:100E600004D3FFE703208DF81700C6E2E7E71CE094
:100E7000FFF7E8FC0390FFE743F60000C4F202002E
:100E8000006800F400310020B0EB514F0CD0FFE7B8
:100E9000FFF7D8FC0399401A652804D3FFE7032025
:100EA0008DF81700A9E2E7E7FFE7FFE7FFE70498FF
:100EB00000788007002840F19680FFE743F608009D
:100EC000C4F20200006810F00C0F13D0FFE743F6E5
:100ED0000800C4F20200006800F00C0008282CD1C1
:100EE000FFE743F60400C4F2020000684002002855
:100EF00023D4FFE743F60000C4F20200006800F0CC
:100F000002010020B0EB510F09D0FFE70498C06840
:100F1000012804D0FFE701208DF817006DE243F6A9
:100F20000001C4F20201086820F0F800049A126976
:100F300040EAC2000860FFE754E00498C06870B35C
:100F4000FFE70021C4F2472101200860FFF77AFC87
:100F50000390FFE743F60000C4F20200006800F0CF
:100F600002010020B0EB510F0CD1FFE7FFF76AFC44
:100F70000399401A032804D3FFE703208DF81700D4
:100F80003BE2E7E743F60001C4F20201086820F003
:100F9000F800049A126940EAC200086021E00021CA
:100FA000C4F2472100200860FFF74CFC0390FFE7E4
:100FB00043F60000C4F20200006800F002010020C5
:100FC000B0EB510F0CD0FFE7FFF73CFC0399401A40
:100FD000032804D3FFE703208DF817000DE2E7E7AD
:100FE000FFE7FFE7FFE704980078000700284BD5EC
:100FF000FFE70498406918B3FFE740F68061C4F248
:10100000472101200860FFF71DFC0390FFE743F62E
:101010007400C4F20200006800F002010020B0EB8E
:10102000510F0CD1FFE7FFF70DFC0399401A03287D
:1010300004D3FFE703208DF81700DEE1E7E722E0A5
:1010400040F68061C4F2472100200860FFF7FAFBF8
:101050000390FFE743F67400C4F20200006800F05A
:1010600002010020B0EB510F0CD0FFE7FFF7EAFBC5
:101070000399401A032804D3FFE703208DF81700D3
:10108000BBE1E7E7FFE7FFE70498007840070028A7
:1010900040F1CE80FFE700208DF8070043F64000C6
:1010A000C4F202000068C000002815D4FFE7FFE783
:1010B0000020009043F64000C4F20200016841F0B5
:1010C00080510160006800F0805000900098FFE7B8
:1010D00001208DF80700FFE747F20000C4F200008E
:1010E0000068C005002822D4FFE747F20001C4F2DF
:1010F0000001086840F480700860FFF7A3FB0390CC
:10110000FFE747F20000C4F200000068C0050028B5
:101110000CD4FFE7FFF796FB0399401A032804D38A
:10112000FFE703208DF8170067E1EAE7FFE7FFE735
:1011300004988068012809D1FFE743F67001C4F2E2
:101140000201086840F0010008601FE00498806810
:1011500005280DD1FFE743F67001C4F202010868CB
:1011600040F004000860086840F0010008600CE0EE
:1011700043F67001C4F20201086820F00100086023
:10118000086820F004000860FFE7FFE7FFE7049825
:101190008068F8B1FFE7FFF755FB0390FFE743F6E0
:1011A0007000C4F20200006800F002010020B0EB01
:1011B000510F0ED1FFE7FFF745FB0399401A41F2AB
:1011C0008931884204D3FFE703208DF8170014E12A
:1011D000E5E71EE0FFF736FB0390FFE743F67000FC
:1011E000C4F20200006800F002010020B0EB510FD1
:1011F0000ED0FFE7FFF726FB0399401A41F2893131
:10120000884204D3FFE703208DF81700F5E0E5E7F7
:10121000FFE79DF80700012809D1FFE743F64001E9
:10122000C4F20201086820F080500860FFE7FFE781
:1012300004988069002800F0DC80FFE743F608008E
:10124000C4F20200006800F00C00082800F085805D
:10125000FFE70498806902285CD1FFE76021C4F2AF
:10126000472100200860FFF7EDFA0390FFE743F6FF
:101270000000C4F20200006800F000710020B0EB32
:10128000516F0CD0FFE7FFF7DDFA0399401A0328EE
:1012900004D3FFE703208DF81700AEE0E7E70499D9
:1012A000C869D1F820C04B6A8A6A40EA0C0040EA5B
:1012B0008310D2034FF6FF739A43A2F58032104396
:1012C000C96A40EA016043F60401C4F20201086001
:1012D0006021C4F2472101200860FFF7B3FA0390B0
:1012E000FFE743F60000C4F20200006800F000715E
:1012F0000020B0EB516F0CD1FFE7FFF7A3FA039981
:10130000401A032804D3FFE703208DF8170074E088
:10131000E7E721E06021C4F2472100200860FFF7E1
:1013200091FA0390FFE743F60000C4F20200006860
:1013300000F000710020B0EB516F0CD0FFE7FFF719
:1013400081FA0399401A032804D3FFE703208DF89C
:10135000170052E0E7E7FFE74AE0049880690128B8
:1013600004D1FFE701208DF8170046E043F60400A2
:10137000C4F202000068029004988069012831D00C
:10138000FFE7029800F480000499C969884229D1D6
:10139000FFE7029800F03F000499096A884221D1D2
:1013A000FFE7029847F6C07108400499496AB0EB1C
:1013B000811F17D1FFE7029800F440300499896A31
:1013C000C9034FF6FF729143A1F58031884209D1DC
:1013D000FFE7029800F070600499C96AB0EB016FF2
:1013E00004D0FFE701208DF8170006E0FFE7FFE7D4
:1013F000FFE700208DF81700FFE79DF8170006B003
:1014000080BD000080B582B00190019800F0AAFF75
:1014100002B080BD85B003900291FFE7039890F879
:101420003C00012804D1FFE702208DF813007EE084
:101430000399012081F83C00FFE7FFE703990220B0
:1014400081F83D00039800684068019003980068A7
:1014500080680090019820F0700001900298016867
:10146000019808430190019803990968486003981E
:1014700000680021C4F2010188423CD0FFE70398D4
:101480000068B0F1804F36D0FFE70398006840F263
:101490000041C4F2000188422DD0FFE703980068A4
:1014A00040F60001C4F20001884224D0FFE703980F
:1014B000006840F60041C4F2000188421BD0FFE7FB
:1014C0000398006840F20041C4F20101884212D042
:1014D000FFE70398006844F20001C4F2010188426A
:1014E00009D0FFE70398006841F60001C4F200014B
:1014F00088420ED1FFE7009820F08000009002980B
:101500004168009808430090009803990968886032
:10151000FFE70399012081F83D00FFE703990020D0
:1015200081F83C00FFE700208DF81300FFE79DF8ED
:10153000130005B07047000080B582B0009000989D
:1015400020B9FFE701208DF807003FE0009890F8F0
:101550003D0040B9FFE70099002081F83C00009869
:1015600000F038F8FFE70099022081F83D0000996B
:1015700051F8040B00F08CFF0099012081F846001F
:10158000FFE70099012081F83E00009981F83F00B3
:10159000009981F84000009981F84100FFE7FFE7DA
:1015A0000099012081F84200009981F843000099D8
:1015B00081F84400009981F84500FFE70099012077
:1015C00081F83D0000208DF80700FFE79DF8070037
:1015D00002B080BD84B003900398006840F20041DF
:1015E000C4F20001884212D1FFE7FFE70020029019
:1015F00043F64000C4F20200016841F002010160BC
:10160000006800F0020002900298FFE737E00398BC
:10161000006840F60001C4F20001884212D1FFE7E1
:10162000FFE70020019043F64000C4F20200016889
:1016300041F004010160006800F00400019001988D
:10164000FFE71BE00398006840F60041C4F2000188
:10165000884212D1FFE7FFE70020009043F64000E8
:10166000C4F20200016841F008010160006800F066
:10167000080000900098FFE7FFE7FFE7FFE704B0EE
:101680007047000080B586B00490039100208DF86B
:101690000B00FFE7049890F83C00012804D1FFE715
:1016A00002208DF81700ABE00499012081F83C007E
:1016B000FFE7FFE70499022081F83D0004980068E5
:1016C00080680190019820F077000190019820F443
:1016D0007F40019001980499096888600398006828
:1016E0000090002872D0FFE7009810286ED0FFE726
:1016F000009820286AD0FFE70098302866D0FFE7DE
:101700000098402855D0FFE70098502837D0FFE7D1
:101710000098602840D0FFE7009870280BD0FFE7C2
:101720000098B0F5805F05D0FFE70098B0F5005F46
:1017300016D052E055E004980068039B5A689968F7
:10174000DB6800F07DFF04980068806801900198D4
:1017500040F077000190019804990968886040E0A2
:1017600004980068039B5A689968DB6800F068FF7A
:1017700004980168886840F48040886031E00498EB
:101780000068039A5168D26801F046F9049800682D
:10179000502100F06FFF24E004980068039A51681C
:1017A000D26801F061F904980068602100F062FFDE
:1017B00017E004980068039A5168D26801F02CF988
:1017C00004980068402100F055FF0AE00498006882
:1017D0000399096800F04EFF03E001208DF80B002B
:1017E000FFE70499012081F83D00FFE704990020FC
:1017F00081F83C00FFE79DF80B008DF81700FFE72C
:101800009DF8170006B080BD80B58CB00B9000200D
:101810000A9009900890079006900B98006840F293
:101820000041C4F20001884243D1FFE7FFE70020F6
:10183000059043F63000C4F20200016841F0010156
:101840000160006800F0010005900598FFE7FFE7E0
:101850000020049043F63000C4F20200016841F019
:1018600002010160006800F0020004900498FFE7A4
:10187000C02006900220019007900021009108915D
:1018800009910A900020C4F2020006A90291FEF715
:10189000E5FD009A019802990323069307900892A8
:1018A00009920A9040F20040C4F20200FEF7D6FD11
:1018B0002BE00B98006840F60001C4F2000188425A
:1018C00022D1FFE7FFE70020039043F63000C4F287
:1018D0000200016841F002010160006800F00200AE
:1018E00003900398FFE74FF4707006900220079072
:1018F0000021089109910A9040F20040C4F20200D0
:1019000006A9FEF7ABFDFFE7FFE70CB080BD0000C6
:1019100080B586B004900391029200208DF80700F4
:10192000FFE7049890F83C00012804D1FFE702206B
:101930008DF8170089E00499012081F83C00FFE749
:10194000FFE7029800900C2800F270800099DFE811
:1019500001F0076D6D6D206D6D6D3A6D6D6D53000D
:1019600004980068039900F09BFE04980168886958
:1019700040F00800886104980168886920F004003C
:101980008861039802690498016888691043886136
:1019900050E004980068039900F0F8FE049801688C
:1019A000886940F40060886104980168886920F4BF
:1019B000806088610398026904980168886940EA38
:1019C0000220886136E004980068039900F058FF0F
:1019D00004980168C86940F00800C861049801686B
:1019E000C86920F00400C86103980269049801687E
:1019F000C8691043C8611DE004980068039900F0AD
:101A0000B9FF04980168C86940F40060C86104988F
:101A10000168C86920F48060C8610398026904986D
:101A20000168C86940EA0220C86103E001208DF81E
:101A30000700FFE7FFE70499002081F83C00FFE77B
:101A40009DF807008DF81700FFE79DF8170006B016
:101A500080BD000080B582B00090009820B9FFE7FB
:101A600001208DF807003FE0009890F83D0040B954
:101A7000FFE70099002081F83C00009800F038F85A
:101A8000FFE70099022081F83D00009951F8040B0E
:101A900000F0FEFC0099012081F84600FFE7009964
:101AA000012081F83E00009981F83F00009981F8FB
:101AB0004000009981F84100FFE7FFE7009901200D
:101AC00081F84200009981F84300009981F84400B0
:101AD000009981F84500FFE70099012081F83D0059
:101AE00000208DF80700FFE79DF8070002B080BDD9
:101AF00081B0009001B0704780B582B0009000982E
:101B000020B9FFE701208DF8070040E000988069C8
:101B100008B1FFE700E0FFE7009890F8410040B906
:101B2000FFE70099002081F84000009800F034F8A9
:101B3000FFE70099242081F8410000980168C868F7
:101B400020F40050C860009800F0B8FF00980168C9
:101B5000086920F49040086100980168486920F005
:101B60002A00486100980168C86840F40050C860C5
:101B7000009900204864009A202182F84110009AC0
:101B800082F84210009948638DF80700FFE79DF83E
:101B9000070002B080BD000080B58EB00D9000201F
:101BA0000C900B900A90099008900D98006841F2F3
:101BB0000001C4F20101884234D1FFE7FFE70020B1
:101BC000079043F64400C4F20200016841F010019E
:101BD0000160006800F0100007900798FFE7FFE73A
:101BE0000020069043F63000C4F20200016841F084
:101BF00001010160006800F0010006900698FFE70F
:101C00004FF4C06008900220099000200A90032041
:101C10000B9007200C900020C4F2020008A9FEF7E8
:101C20001DFCB9E00D98006844F20041C4F20001C7
:101C3000884233D1FFE7FFE70020059043F64000DC
:101C4000C4F20200016841F400310160006800F450
:101C5000003005900598FFE7FFE70020049043F669
:101C60003000C4F20200016841F001010160006827
:101C700000F0010004900498FFE70C200890022077
:101C8000099000200A9003200B9007200C90002060
:101C9000C4F2020008A9FEF7E1FB7CE00D980068A1
:101CA00044F60001C4F20001884235D1FFE7FFE7A6
:101CB0000020039043F64000C4F20200016841F4A2
:101CC00080210160006800F4802003900398FFE702
:101CD000FFE70020029043F63000C4F202000168E2
:101CE00041F002010160006800F0020002900298D9
:101CF000FFE74FF4406008900220099000200A900E
:101D000003200B9007200C9040F20040C4F2020028
:101D100008A9FEF7A3FB3DE00D98006841F20041E1
:101D2000C4F20101884234D1FFE7FFE700200190AF
:101D300043F64400C4F20200016841F02001016052
:101D4000006800F0200001900198FFE7FFE7002005
:101D5000009043F63000C4F20200016841F0040133
:101D60000160006800F0040000900098FFE7C020C8
:101D700008900220099000200A9003200B90082070
:101D80000C9040F60000C4F2020008A9FEF766FBC2
:101D9000FFE7FFE7FFE7FFE70EB080BDFFE7FEE7E5
:101DA00080B596B000201590149013901290119069
:101DB000FFE70020109043F63000C4F202000168F3
:101DC00041F004010160006800F0040010901098D8
:101DD000FFE7FFE700200F9043F63000C4F2020057
:101DE000016841F080010160006800F080000F9000
:101DF0000F98FFE7FFE700200E9043F63000C4F293
:101E00000200016841F001010160006800F001007A
:101E10000E900E98FFE7FFE700200D9043F630008C
:101E2000C4F20200016841F002010160006800F0A4
:101E300002000D900D98FFE7FFE700200C9043F69D
:101E40003000C4F20200016841F00801016000683E
:101E500000F008000C900C98FFE740F60000C4F278
:101E6000020002904FF60141019100220992FEF713
:101E7000D1FC099A0020C4F2020004904FF4004102
:101E80000391FEF7C7FC099A40F60040C4F2020035
:101E9000069004210591FEF7BDFC099A40F200402E
:101EA000C4F202000A9038210791FEF7B3FC019AB0
:101EB0000298099911920122089212921391149199
:101EC00011A90B91FEF7CAFADDF80CC00498089B23
:101ED000099A0B99CDF844C0129313921492FEF70D
:101EE000BDFADDF814C00698089B099A0B99CDF845
:101EF00044C0129313921492FEF7B0FADDF81CC09E
:101F0000089B099A0A980B99CDF844C01293139232
:101F10001492FEF7A3FA16B080BD000080B58EB013
:101F2000002100910D910C910B910A91099108915A
:101F3000079106910591049103910291019140F25C
:101F40007000C2F2000040F20042C4F200020260DF
:101F5000416081604FF6FF72C26001618161FFF7ED
:101F6000EBFA18B1FFE7FEF775FAFFE74FF4805080
:101F70000A9040F27000C2F200000AA9FFF782FB4B
:101F800018B1FFE7FEF766FAFFE740F27000C2F211
:101F90000000FFF75FFD18B1FFE7FEF75BFAFFE710
:101FA00000200890099040F27000C2F2000008A9D9
:101FB000FFF730FA18B1FFE7FEF74CFAFFE76020B1
:101FC0000190002202920392059240F27000C2F248
:101FD000000001A9FFF79CFC18B1FFE7FEF73AFAF1
:101FE000FFE740F27000C2F2000001A90422FFF7EF
:101FF0008FFC18B1FFE7FEF72DFAFFE740F2700003
:10200000C2F2000001A90822FFF782FC18B1FFE725
:10201000FEF720FAFFE740F27000C2F2000001A9CB
:102020000C22FFF775FC18B1FFE7FEF713FAFFE784
:1020300040F27000C2F20000FFF7E6FB0EB080BD78
:1020400080B58EB0002100910D910C910B910A91F9
:1020500009910891079106910591049103910291CC
:10206000019140F2B800C2F2000040F60002C4F252
:1020700000020260416081604FF6FF72C260016140
:102080008161FFF759FA18B1FFE7FEF7E3F9FFE7BF
:102090004FF480500A9040F2B800C2F200000AA942
:1020A000FFF7F0FA18B1FFE7FEF7D4F9FFE740F2C7
:1020B000B800C2F20000FFF7CDFC18B1FFE7FEF751
:1020C000C9F9FFE700200890099040F2B800C2F279
:1020D000000008A9FFF79EF918B1FFE7FEF7BAF96B
:1020E000FFE760200190002202920392059240F2E5
:1020F000B800C2F2000001A9FFF70AFC18B1FFE71F
:10210000FEF7A8F9FFE740F2B800C2F2000001A90B
:102110000422FFF7FDFB18B1FFE7FEF79BF9FFE78D
:1021200040F2B800C2F2000001A90822FFF7F0FB5C
:1021300018B1FFE7FEF78EF9FFE740F2B800C2F2F0
:10214000000001A90C22FFF7E3FB18B1FFE7FEF73F
:1021500081F9FFE740F2B800C2F20000FFF754FB3C
:102160000EB080BD80B588B0002101910791069125
:10217000059104910391029140F20010C2F2000017
:1021800040F60042C4F200020260416081604FF0FC
:10219000FF32C26001618161FFF7CEF918B1FFE73C
:1021A000FEF758F9FFE74FF48050049040F200101A
:1021B000C2F2000004A9FFF765FA18B1FFE7FEF7C5
:1021C00049F9FFE700200290039040F20010C2F2AC
:1021D000000002A9FFF71EF918B1FFE7FEF73AF970
:1021E000FFE708B080BD000080B582B040F2481023
:1021F000C2F20000019041F20001C4F2010101604D
:102200004FF4E131416000218160C16001610C2225
:1022100042618161C161FFF76FFC18B1FFE7FEF712
:1022200019F9FFE702B080BD80B582B040F290108E
:10223000C2F20000019044F20041C4F200010160CA
:102240004FF4E131416000218160C16001610C22E5
:1022500042618161C161FFF74FFC18B1FFE7FEF7F2
:10226000F9F8FFE702B080BD80B582B040F2D81027
:10227000C2F20000019044F60001C4F200010160C6
:102280004FF4E131416000218160C16001610C22A5
:1022900042618161C161FFF72FFC18B1FFE7FEF7D2
:1022A000D9F8FFE702B080BD80B582B040F22020AF
:1022B000C2F20000019041F20041C4F2010101604C
:1022C0004FF4E131416000218160C16001610C2265
:1022D00042618161C161FFF70FFC18B1FFE7FEF7B2
:1022E000B9F8FFE702B080BDFFE7FEE7FFE7FEE7D2
:1022F00088B0079006910592079800F007000490B7
:102300000498C0F10700052803D3FFE704200190DB
:1023100004E00498C0F107000190FFE701980390E2
:1023200004980430062803D8FFE70020009003E05B
:10233000049803380090FFE70098029006980399EC
:10234000012202FA01F101390840029B98400599E7
:102350009A40013A1140084308B0704770470000A6
:102360007047000080B582B0009000980138B0F14D
:10237000807F03D3FFE70120019019E00098013826
:102380004EF21401CEF2000108604FF0FF300F2131
:1023900000F03CFC4EF21801CEF200010020086073
:1023A0004EF21002CEF20002072111600190FFE709
:1023B000019802B080BD000080B5FEF749FA80BDEB
:1023C00080B594B008A83021FDF7DCFF002007900D
:1023D0000690059004900390FFE70020029043F6DA
:1023E0004000C4F20200016841F0805101600068C1
:1023F00000F0805002900298FFE7FFE70020019074
:1024000047F20000C4F20000016841F4804101601D
:10241000006800F4804001900198FFE702200890D6
:1024200001210B9110210C910E9000210F91082198
:102430001091A821119112900420139008A8FEF782
:1024400081FC18B1FFE7FEF705F8FFE70F200390C6
:1024500002200490002005904FF4A05006904FF405
:102460008050079003A80521FEF79CFA18B1FFE7FA
:10247000FDF7F0FFFFE714B080BD00004EF6885175
:10248000CEF20001086840F4700008607047000058
:1024900083B0029001910298006800900298002198
:1024A000C4F20101884225D0FFE70298B0F1804FC5
:1024B00020D0FFE7029840F20041C4F200018842B8
:1024C00018D0FFE7029840F60001C4F200018842EC
:1024D00010D0FFE7029840F60041C4F200018842A4
:1024E00008D0FFE7029840F20041C4F2010188429F
:1024F0000AD1FFE7009820F0700000900198416831
:10250000009808430090FFE702980021C4F20101FF
:10251000884255D0FFE70298B0F1804F50D0FFE7D6
:10252000029840F20041C4F20001884248D0FFE71F
:10253000029840F60001C4F20001884240D0FFE753
:10254000029840F60041C4F20001884238D0FFE70B
:10255000029840F20041C4F20101884230D0FFE706
:10256000029844F20001C4F20101884228D0FFE73A
:10257000029844F20041C4F20101884220D0FFE7F2
:10258000029844F60001C4F20101884218D0FFE726
:10259000029841F60001C4F20001884210D0FFE722
:1025A000029841F60041C4F20001884208D0FFE7DA
:1025B000029842F20001C4F2000188420AD1FFE70A
:1025C000009820F4407000900198C168009808437A
:1025D0000090FFE7009820F08000019949690843C6
:1025E0000090009802990860019880680299C8627A
:1025F000019800680299886202980021C4F20101E2
:10260000884208D0FFE7029840F20041C4F201017D
:10261000884205D1FFE70198006902990863FFE746
:1026200002990120486102980069C00730B1FFE7B4
:102630000299086920F001000861FFE703B07047C4
:1026400085B00490039102920193049880680090F1
:10265000009820F47F40009003980299019A41EA83
:102660000221014300980843009000980499886073
:1026700005B0704783B00290019102988068009085
:10268000009820F07000009001980099084340F0F5
:102690000700009000980299886003B0704700001E
:1026A00085B0049003910498006A01900499086A27
:1026B00020F0010008620498406800900498806946
:1026C0000290029820F070000290029820F003001F
:1026D000029003980168029808430290019820F044
:1026E00002000190039881680198084301900498C2
:1026F0000021C4F20101884208D0FFE7049840F2AB
:102700000041C4F2010188420ED1FFE7019820F098
:10271000080001900398C16801980843019001984E
:1027200020F004000190FFE704980021C4F20101A9
:10273000884208D0FFE7049840F20041C4F201014A
:10274000884213D1FFE7009820F480700090009831
:1027500020F40070009003984169009808430090AD
:1027600003988169009808430090FFE70098049956
:102770004860029804998861039840680499486306
:1027800001980499086205B07047000085B0049074
:1027900003910498006A01900499086A20F01000DF
:1027A000086204984068009004988069029002983A
:1027B00020F4E0400290029820F4407002900398C8
:1027C0000168029840EA01200290019820F0200060
:1027D000019003988168019840EA011001900498E3
:1027E0000021C4F20101884208D0FFE7049840F2BA
:1027F0000041C4F2010188420FD1FFE7019820F0A7
:10280000800001900398C168019840EA011001908E
:10281000019820F040000190FFE704980021C4F2E5
:102820000101884208D0FFE7049840F20041C4F259
:102830000101884215D1FFE7009820F480600090E4
:10284000009820F40060009003984169009840EAE5
:102850008100009003988169009840EA810000900F
:10286000FFE70098049948600298049988610398EA
:1028700040680499886301980499086205B070471C
:1028800085B0049003910498006A01900499086A45
:1028900020F4807008620498406800900498C06931
:1028A0000290029820F070000290029820F003003D
:1028B000029003980168029808430290019820F45E
:1028C0000070019003988168019840EA012001900E
:1028D00004980021C4F20101884208D0FFE704985F
:1028E00040F20041C4F2010188420FD1FFE7019894
:1028F00020F4006001900398C168019840EA01202B
:102900000190019820F480600190FFE70498002175
:10291000C4F20101884208D0FFE7049840F2004168
:10292000C4F20101884215D1FFE7009820F48050DD
:102930000090009820F4005000900398416900989E
:1029400040EA0110009003988169009840EA011064
:102950000090FFE700980499486002980499C861C4
:10296000039840680499C86301980499086205B007
:102970007047000085B0049003910498006A0190AC
:102980000499086A20F48050086204984068009016
:102990000498C0690290029820F4E04002900298E6
:1029A00020F44070029003980168029840EA0120E8
:1029B0000290019820F400500190039881680198DA
:1029C00040EA0130019004980021C4F201018842DC
:1029D00008D0FFE7049840F20041C4F201018842A8
:1029E0000BD1FFE7009820F48040009003984169E4
:1029F000009840EA81100090FFE700980499486031
:102A000002980499C8610398406804990864019881
:102A10000499086205B0704785B004900391029252
:102A20000498006A00900499086A20F00100086286
:102A3000049880690190019820F0F00001900299BB
:102A4000019840EA01100190009820F00A000090DF
:102A500003990098084300900198049988610098B0
:102A60000499086205B0704785B004900391029202
:102A70000498006A00900499086A20F01000086227
:102A8000049880690190019820F4704001900299A7
:102A9000019840EA01300190009820F0A0000090D9
:102AA0000399009840EA0110009001980499886108
:102AB00000980499086205B07047000080B586B0A0
:102AC000059005980068006920F44050059A116847
:102AD000D26810430861059988680B694A69C96919
:102AE000184310430843049005980068C06849F2F1
:102AF0000C6188430499084305990968C8600598E2
:102B00000068406920F44070059A1168926910438A
:102B100048610598006841F20001C4F20101884251
:102B200009D0FFE70598006841F20041C4F20101B5
:102B3000884204D1FFE7FEF77FF8039003E0FEF739
:102B400069F80390FFE70598C069B0F5004F29D1F7
:102B5000FFE703981921A0FB0101059A136802936E
:102B600053685A00DB0FFDF795FB0299864648F241
:102B70001F53C5F2EB13AEFB0320420910014FF0C7
:102B8000640C02FB1CEC322202EBCC02A2FB0332EF
:102B9000F82303EA521300EB4300C2F3421210443D
:102BA000886026E003981921A0FB0101059A1368AB
:102BB000019353689A009B0FFDF76CFB01998446C3
:102BC00048F21F52C5F2EB12ACFB023043096420FD
:102BD00003FB10CC322000EB0C10A0FB0202F02013
:102BE00000EA521000EB0310C2F343121044886055
:102BF000FFE706B080BD0000FFE7FEE74EF60C5091
:102C0000CEF200000068C0F30220704782B08DF859
:102C1000070000919DF9070000280AD4FFE70098FB
:102C200000019DF907104EF20042CEF200028854D6
:102C30000BE0009800019DF8071001F00F014EF61F
:102C40001452CEF200028854FFE702B07047000031
:102C500083B00290029800F0070000904EF60C51ED
:102C6000CEF200010868019001984FF6FF02104073
:102C700001900198009A40EA02200022C0F2FA5224
:102C8000104301900198086003B0704780B582B08E
:102C90000190FDF7B9FF4DF68361C4F21B31A0FB33
:102CA0000110000D019948430090FFE70098411E74
:102CB000009110B1FFE700BFF8E702B080BD00004F
:102CC00080B582B000200190FDF7D0FDFFF778FBC2
:102CD000FFF766F8FFF722F9FFF7B2F9FFF742FABC
:102CE000FFF782FAFFF7A0FAFFF7BEFAFFF7DCFA68
:102CF00000F006F84FF4486000F028F8FFE7FEE720
:102D000080B584B00020C4F202004FF400410122DB
:102D10000392FDF77FFD039A40F60000C4F2020023
:102D20004FF48061FDF776FD039A40F20040C4F253
:102D30000200019020210291FDF76CFD019802999B
:102D4000039AFDF767FD04B080BD000080B58AB02E
:102D500009900998012832DBFFE740F20040C4F2F5
:102D6000020008210122FDF755FD00200890FFE731
:102D700008980999884221D2FFE740F60000C4F282
:102D8000020004904FF4006105910122FDF742FD1D
:102D900040F20400C2F2000006900068FFF776FFE0
:102DA000049805990022FDF735FD06980068FFF7A5
:102DB0006DFFFFE7089801300890D9E7FFE7099811
:102DC000B0F1FF3F34DCFFE740F20040C4F2020004
:102DD000082100220392FDF71DFD03980790FFE7ED
:102DE000079809994942884221D2FFE740F600003E
:102DF000C4F2020000904FF4006101910122FDF73E
:102E000009FD40F20400C2F2000002900068FFF7E2
:102E10003DFF009801990022FDF7FCFC0298006834
:102E2000FFF734FFFFE7079801300790D8E7FFE787
:102E30000AB080BDF1EE100A4FF6FF71C0F2C0314A
:102E400020EA010040F04070E1EE100A70470000F7
:102E5000000000000000010203040607080900004A
:102E60000000010203040000882E0008000000207A
:102E700010000000EC010008982E0008100000204F
:102E8000600800000C0200080024F4000A000000A2
:082E9000010000001000000029
:040000050800018965
:00000001FF
