:020000040800F2
:10000000F80600209D01000879380008ED3200084C
:1000100075380008310700086D480008000000002E
:10002000000000000000000000000000ED380008A3
:10003000ED08000800000000E93800084539000814
:10004000B7010008B7010008B7010008B7010008B0
:10005000B7010008B7010008B7010008B7010008A0
:10006000B7010008B7010008B7010008B701000890
:10007000B7010008B7010008B7010008B701000880
:10008000B7010008B7010008B7010008B701000870
:10009000B7010008B7010008B7010008B701000860
:1000A000B7010008B7010008B7010008B701000850
:1000B000B7010008B7010008B7010008B701000840
:1000C000B7010008B7010008B7010008B701000830
:1000D000B70100085D480008B7010008B701000833
:1000E000B7010008B7010008B7010008B701000810
:1000F000B7010008B7010008B7010008B701000800
:10010000B7010008B7010008B7010008B7010008EF
:10011000B7010008B7010008B7010008B7010008DF
:10012000B7010008B701000835070008B70100084B
:10013000B70100080000000000000000B70100083F
:10014000B7010008B7010008B7010008B7010008AF
:10015000B7010008B701000845070008B70100080B
:10016000B7010008B7010008B7010008B70100088F
:10017000B7010008B70100080000000000000000FF
:10018000B7010008B7010008DFF80CD000F048FA0A
:100190000048004755490008F806002006488047F7
:1001A00006480047FEE7FEE7FEE7FEE7FEE7FEE75C
:1001B000FEE7FEE7FEE7FEE7093A000889010008CE
:1001C0002DE9F05F0546002092469B46884606468C
:1001D000814640241BE0284641464746224600F01F
:1001E00057F853465A46C01A914110D31146184643
:1001F000224600F03EF82D1A67EB01084F462246D2
:100200000120002100F035F817EB00094E41201EB7
:10021000A4F10104DFDC484631462A464346BDE8E6
:10022000F09FD2B201E000F8012B491EFBD27047CB
:100230000022F6E710B513460A4604461946FFF7B2
:10024000F0FF204610BD30B50B46014600202022AD
:10025000012409E021FA02F59D4205D303FA02F5D3
:10026000491B04FA02F52844151EA2F10102F1DC33
:1002700030BD202A04DB203A00FA02F1002070474A
:100280009140C2F1200320FA03F3194390407047D4
:10029000202A04DB203A21FA02F00021704721FADB
:1002A00002F3D040C2F12002914008431946704742
:1002B0002DE9FE4F804681EA0300C00F0C460090F6
:1002C00021F0004123F00045B8EB0200A94105D21E
:1002D0004046214690461C460B46024623F000400D
:1002E000104347D0270DC7F30A00C3F30A51029009
:1002F000401A019040286BDAC3F3130040F4801BCE
:100300000098924620B10023D2EB030A63EB0B0B5B
:1003100001985946C0F140025046FFF7AAFF064631
:100320000D4650465946019A00F092F910EB08002C
:100330006141002487EA115284EAE7731A4340D0EE
:10034000009A62B3019A012A4FEA075215DC001B9A
:1003500061EB02014FF0004202EA0752CDE9004290
:10036000001C41F5801132462B4600F092F903B093
:10037000BDE8F08F40462146F9E7001B61EB020122
:10038000001C41F5801300185B412018A2F50017EE
:1003900047EB030140EAD570B6196D4111E06D08D5
:1003A0004FEA360645EAC0754FEA0752001B61EB7B
:1003B0000201001C41F5801149084FEA3000001984
:1003C000514132462B4603B0BDE8F04F00F052B920
:1003D0000098012240000023D0EB020263EBE0739F
:1003E000009821464FEAE074B8EB000061EB04018D
:1003F000E9E783F000435BE781F0004158E72DE92E
:10040000FE4F81EA030404F0004421F0004100940F
:100410004FF0000B23F0004350EA01045ED052EA93
:1004200003045BD0C3F30A54C1F30A552C44A4F26D
:10043000F3340194A0FB0254C1F3130141F4801181
:10044000C3F3130343F4801301FB024400FB034E88
:10045000840A970A44EA815447EA8357A4FB076851
:1004600002958D0A05FB07854FEA932C04FB0C547B
:100470002705029D4FEA065847EA1637B5EB0805EF
:100480006EEB070C870E920E47EA811742EA831241
:10049000A7FB0201B6EB0B0164EB00042B0D43EA52
:1004A0000C335E1844EB1C50DA465146E7FB020160
:1004B000C5F313044FEA0B3343EA14534FEA0432F3
:1004C000019C43EA0603A4F10C040294009CCDE9CC
:1004D00000B400F0DEF803B0BDE8F08F0020014664
:1004E000F9E72DE9F04D81EA030404F0004B21F017
:1004F000004514464FF0000A23F0004150EA05027F
:1005000020D054EA01021DD0C5F30A570246C5F3B4
:100510001303C1F31300C1F30A5640F4801543F4EA
:100520008013A7EB0608101BD64608F2FD3873EBC4
:10053000050002D308F1010801E092185B41B8F10F
:10054000000F03DA00200146BDE8F08D00204FF4D3
:100550008011064684460EE0171B73EB050705D392
:10056000121B63EB050306434CEA010C49084FEAF2
:10057000300092185B4150EA0107EDD152EA0300C6
:1005800012D082EA040083EA0501084305D0101B5B
:10059000AB4106D20122002306E000224FF00043C7
:1005A00002E06FF0010253101AEB06004CEB085109
:1005B00010EB0A0041EB0B01BDE8F04D00F05AB81A
:1005C000C1F30A52C1F3130140F2FF3341F4801129
:1005D0009A4202DA00200146704740F233439A42C1
:1005E000A2F2334202DC5242FFF752BEFFF741BE95
:1005F00030B5041E71F1000404DB4FF000444042AA
:1006000064EB0101141E73F1000405DB1C464FF07E
:100610000043524263EB0403994208BF904230BD4D
:100620001CB509480090094801900546009C06E069
:10063000E06840F0010394E8070098471034AC42AA
:10064000F6D3FFF7A5FD0000785300089853000883
:10065000202A06DBCB17203A41FA02F043EAE07386
:1006600006E041FA02F3D040C2F120029140084373
:100670001946704710B5141E73F1000408DA401CC7
:1006800041F1000192185B411A4301D120F00100B1
:1006900010BD2DE9F04D92469B4611B1B1FA81F2A1
:1006A00002E0B0FA80F220329046FFF7E2FD044605
:1006B0000F4640EA0A0041EA0B0153465A460843F6
:1006C00013D0114653EA010019D0C8F14002504638
:1006D000FFF7DEFD05460E46504659464246FFF7F7
:1006E000C8FD084305D0012004E020463946BDE896
:1006F000F08D0020054346EAE0762C4337430A9804
:100700006305E40AA0EB08000022FD0A44EA47540E
:100710000A3002D500200146E9E7010510196941B8
:10072000DDE9084500196941BDE8F04DA2E7000088
:10073000FFE7FEE780B540F21000C2F2000000F0D3
:1007400073F980BD80B540F27000C2F2000000F085
:100750006BF980BD82B001900198007810384AF69C
:10076000AB21CAF6AA21A0FB011000090090009954
:1007700045F26230C0F60000405C0199C8650098FF
:10078000042807D3FFE701990868042262F30900EF
:10079000886506E00199086840F2FF329043886559
:1007A000FFE70198806D02B07047000086B00590A9
:1007B00000208DF813000598806A039005988069E1
:1007C00010BBFFE70398029003281BD80299DFE8CB
:1007D00001F0020D0218059890F82F00C00720B113
:1007E000FFE701208DF81300FFE70CE00598C06AD1
:1007F000B0F1C07F04D1FFE701208DF81300FFE7BF
:1008000001E000E0FFE745E005988069B0F5005F92
:1008100025D1FFE70398019003281ED80199DFE84E
:1008200001F00206021101208DF8130016E0059870
:1008300090F82F00C00720B1FFE701208DF81300CA
:10084000FFE70BE00598C06AB0F1C07F04D1FFE775
:1008500001208DF81300FFE700E0FFE719E003989F
:100860000090032804D3FFE70098032804D00EE08B
:1008700001208DF813000BE0059890F82F00C007B9
:1008800020B1FFE701208DF81300FFE700E0FFE74C
:10089000FFE7FFE79DF8130006B0704784B00390B0
:1008A00002910192009303980168086820F4802067
:1008B0000860009803990968486003988068402898
:1008C00009D1FFE7019803990968886002980399A4
:1008D0000968C86008E0029803990968886001986F
:1008E00003990968C860FFE704B0704770470000CB
:1008F00072B6FFE7FEE7000080B584B00290029870
:10090000806D019000F050FD0090029890F8350045
:1009100002280DD0FFE7029980204865FFE7029981
:10092000002081F83400FFE701208DF80F0055E02A
:1009300002980168086820F01600086002980168B3
:10094000486920F0800048610298006C20B9FFE7F8
:100950000298806C38B1FFE702980168086820F0BF
:1009600008000860FFE702980168086820F00100AD
:100970000860FFE7029800680068C007C8B1FFE799
:1009800000F012FD0099401A062811D3FFE70299E2
:10099000202048650299032081F83500FFE702997D
:1009A000002081F83400FFE703208DF80F0015E0E8
:1009B000E0E70298C16D3F20884001998860029964
:1009C000012081F83500FFE70299002081F834000A
:1009D000FFE7FFE700208DF80F00FFE79DF80F000D
:1009E00004B080BD82B00090009890F835000228D5
:1009F00007D0FFE700998020486501208DF80700A7
:100A00000EE00099052081F835000098016808681B
:100A100020F001000860FFE700208DF80700FFE7E5
:100A20009DF8070002B0704780B586B005900020A1
:100A3000039040F20400C2F20000006848F2B511D1
:100A4000C1F64E31A0FB0110800A02900598806D1E
:100A5000019001980068049004980599C96DC840F8
:100A6000000700281AD5FFE70598006800684007CE
:100A7000002812D5FFE705980168086820F00400F7
:100A800008600598C16D0820884001998860059923
:100A9000486D40F001004865FFE7FFE704980599BD
:100AA000C96DC840C007A0B1FFE70598006840695C
:100AB000000600280CD5FFE70598C16D012088408D
:100AC000019988600599486D40F002004865FFE78C
:100AD000FFE704980599C96DC8404007002814D560
:100AE000FFE7059800680068800700280CD5FFE73D
:100AF0000598C16D04208840019988600599486D6A
:100B000040F004004865FFE7FFE704980599C96DC8
:100B1000C840C006002847D5FFE705980068006870
:100B2000000700283FD5FFE70598C16D10208840D9
:100B300001998860059800680068400300281AD56C
:100B4000FFE70598006800680003002809D4FFE764
:100B50000598006C20B1FFE70598016C8847FFE716
:100B600008E00598806C20B1FFE70598816C884704
:100B7000FFE7FFE716E0059800680068C005002859
:100B800007D4FFE705980168086820F008000860AE
:100B9000FFE70598006C20B1FFE70598016C8847D6
:100BA000FFE7FFE7FFE7FFE704980599C96DC84035
:100BB0008006002840F18D80FFE7059800680068F6
:100BC000C006002840F18480FFE70598C16D202011
:100BD000884001998860059890F83500052834D13F
:100BE000FFE705980168086820F01600086005987E
:100BF0000168486920F0800048610598006C20B9C0
:100C0000FFE70598806C38B1FFE705980168086830
:100C100020F008000860FFE70598C16D3F2088407C
:100C2000019988600599012081F83500FFE7059951
:100C3000002081F83400FFE70598006D20B1FFE740
:100C40000598016D8847FFE77BE00598006800681C
:100C5000400300281AD5FFE70598006800680003E4
:100C6000002809D4FFE70598406C20B1FFE70598FC
:100C7000416C8847FFE708E00598C06B20B1FFE7AB
:100C80000598C16B8847FFE7FFE720E005980068FB
:100C90000068C005002811D4FFE7059801680868BE
:100CA00020F0100008600599012081F83500FFE769
:100CB0000599002081F83400FFE7FFE70598C06B35
:100CC00020B1FFE70598C16B8847FFE7FFE7FFE723
:100CD000FFE70598406DA0B3FFE70598406DC0079A
:100CE00030B3FFE70599052081F8350005980168C4
:100CF000086820F001000860FFE7039801300390C6
:100D00000299884201D9FFE707E0FFE705980068EC
:100D10000068C0070028F0D1FFE70599012081F89D
:100D20003500FFE70599002081F83400FFE7FFE771
:100D30000598C06C20B1FFE70598C16C8847FFE7B4
:100D4000FFE706B080BD000080B586B004900020AB
:100D5000039000F029FB0290049820B9FFE70120DE
:100D60008DF81700A3E00498406A08B1FFE7FFE799
:100D70000499022081F83500FFE70499002081F8EA
:100D80003400FFE704980168086820F0010008605B
:100D9000FFE7049800680068C00790B1FFE700F023
:100DA00003FB0299401A06280AD3FFE70499202082
:100DB00048650499032081F835008DF8170076E026
:100DC000E7E70498006800680390039848F23F0141
:100DD000CFF2100108400390049900914868D1F8BF
:100DE00008C0CB680A6940EA0C00184310434A69FE
:100DF00010438A691043CA691043096A0143039882
:100E0000084303900498406A042808D1FFE7049936
:100E1000C86A096B0143039808430390FFE70398EE
:100E20000499096808600498006840690390039871
:100E300020F0070003900498416A03980843039048
:100E40000498406A04281AD1FFE70498816A03983D
:100E5000084303900498C06A80B1FFE70498FFF745
:100E6000A5FC50B1FFE70499402048650499012092
:100E700081F835008DF8170019E0FFE7FFE70398C8
:100E80000499096848610498FFF764FC019004988C
:100E9000C16D3F2088400199886004990020486511
:100EA000049A012182F835108DF81700FFE79DF8AC
:100EB000170006B080BD000080B588B0069005918F
:100EC0000492039300208DF80B000698806D01902A
:100ED000FFE7069890F83400012804D1FFE70220CC
:100EE0008DF81F0045E00699012081F83400FFE7E6
:100EF000FFE7069890F8350001282BD1FFE7069907
:100F0000022081F835000699002048650698059969
:100F1000049A039BFFF7C2FC0698C16D3F208840EE
:100F20000199886006980168086840F0160008601A
:100F30000698006C38B1FFE706980168086840F031
:100F400008000860FFE706980168086840F00100A3
:100F5000086009E0FFE70699002081F83400FFE708
:100F600002208DF80B00FFE79DF80B008DF81F00A5
:100F7000FFE79DF81F0008B080BD000080B584B079
:100F8000039000F011FA029003980190019801304B
:100F900048B1FFE740F20800C2F200000178019872
:100FA00008440190FFE7FFE700F0FEF90299401ABC
:100FB0000199884201D2FFE7F6E704B080BD000046
:100FC0008EB00D900C9100200A90099008900B9023
:100FD000FFE70B980F2800F2CC81FFE70B99012067
:100FE00088400A900C9800680A990840099009986E
:100FF0000A99884240F0B881FFE70C98406800F0F9
:101000000300012807D0FFE70C98406800F00300B8
:1010100002282FD1FFE70D98806808900B984100B7
:10102000032000FA01F10898884308900C98C068E2
:101030000B99490000FA01F10898084308900898B4
:101040000D9988600D98406808900B99012000FA6E
:1010500001F10898884308900C984068C0F300108C
:101060000B9900FA01F108980843089008980D9927
:101070004860FFE70C98406800F00300032818D090
:10108000FFE70D98C06808900B984100032000FA14
:1010900001F10898884308900C9880680B994900E2
:1010A00000FA01F108980843089008980D99C86063
:1010B000FFE70C98406800F00300022826D1FFE704
:1010C0000D980B996FF0030202EA51010844006A7F
:1010D00008900B9800F0070081000F2000FA01F142
:1010E0000898884308900C9800690B9901F0070153
:1010F000890000FA01F108980843089008980D99B2
:101100000B9B02EA530211440862FFE70D98006846
:1011100008900B984100032000FA01F108988843D9
:1011200008900C98406800F003000B99490000FA01
:1011300001F108980843089008980D9908600C98E8
:1011400080798007002800F00E81FFE7FFE700208C
:10115000079043F64400C4F20200016841F4804164
:101160000160006800F4804007900798FFE70B9843
:1011700020F0030043F60801C4F201014058089032
:101180000B9800F0030081000F2000FA01F108988D
:10119000884308900D980021C4F20201884203D1CF
:1011A000FFE7002006905EE00D9840F20041C4F297
:1011B0000201884203D1FFE70120059050E00D981D
:1011C00040F60001C4F20201884203D1FFE7022089
:1011D000049042E00D9840F60041C4F202018842BA
:1011E00003D1FFE70320039034E00D9841F20001A2
:1011F000C4F20201884203D1FFE70420029026E0F6
:101200000D9841F20041C4F20201884203D1FFE788
:101210000520019018E00D9841F60001C4F202018A
:10122000884203D1FFE7062000900AE00D9941F6BD
:101230000042C4F202020820914208BF0720009039
:10124000FFE700980190FFE701980290FFE70298FE
:101250000390FFE703980490FFE704980590FFE7E9
:1012600005980690FFE70698C0B20B9901F00301BC
:10127000890000FA01F108980843089008980B9932
:1012800021F0030143F60802C4F20102885043F63C
:101290000840C4F201000068089009990898884342
:1012A00008900C988079C006002805D5FFE70999B9
:1012B000089808430890FFE7089843F60841C4F2ED
:1012C0000101086043F60C40C4F201000068089078
:1012D00009990898884308900C988079800600281E
:1012E00005D5FFE70999089808430890FFE7089893
:1012F00043F60C41C4F20101086043F60440C4F215
:1013000001000068089009990898884308900C9893
:1013100080798007002805D5FFE7099908980843D8
:101320000890FFE7089843F60441C4F20101086001
:1013300043F60040C4F2010000680890099908983B
:10134000884308900C988079C00728B1FFE7099975
:10135000089808430890FFE7089843F60041C4F254
:1013600001010860FFE7FFE7FFE70B9801300B90F2
:101370002FE60EB07047000082B00190ADF8021069
:101380008DF801209DF8010028B1FFE7BDF80200AB
:101390000199886105E0BDF80200000401998861A7
:1013A000FFE702B07047000040F2EC20C2F20000FC
:1013B0000068704740F20800C2F20000027840F274
:1013C000EC21C2F200010868104408607047000078
:1013D00080B543F60041C4F20201086840F4007091
:1013E0000860086840F480600860086840F4807015
:1013F0000860032000F08AF80F2000F005F800F0E4
:101400003BF8002080BD000080B582B0009040F223
:101410000400C2F20000006840F20801C2F20001BC
:101420000A784FF47A71B1FBF2F1B0FBF1F000F001
:10143000A5FD20B1FFE701208DF8070018E0009816
:101440000F280DD8FFE700994FF0FF30002200F081
:1014500043F8009840F20C01C2F20001086003E07A
:1014600001208DF8070003E000208DF80700FFE75A
:101470009DF8070002B080BD82B0FFE70020019018
:1014800043F64400C4F20200016841F48041016067
:10149000006800F4804001900198FFE7FFE700201A
:1014A000009043F64000C4F20200016841F0805110
:1014B0000160006800F0805000900098FFE702B0E3
:1014C0007047000080B582B08DF807009DF90700D5
:1014D00003F0CEF902B080BD80B586B08DF817005C
:1014E000049103920020029003F0DAF902909DF932
:1014F0001700019002980499039A02F0BFF901467F
:10150000019803F0D5F906B080BD000080B582B027
:101510000190019803F0EEF902B080BD80B584B06F
:1015200002900191029820B9FFE701208DF80F0089
:1015300021E1019843F60041C4F20201096801F07B
:101540000701884212D9FFE7019943F60040C4F22F
:1015500002000170006800F007000199884204D081
:10156000FFE701208DF80F0005E1FFE70298007802
:10157000800700282AD5FFE7029800784007002856
:1015800009D5FFE743F60801C4F20201086840F4F8
:10159000E0500860FFE7029800780007002809D5AE
:1015A000FFE743F60801C4F20201086840F4604016
:1015B0000860FFE743F60801C4F20201086820F062
:1015C000F000029A926810430860FFE702980078E2
:1015D000C00700286ED0FFE702984068012811D1AB
:1015E000FFE743F60000C4F20200006800F4003197
:1015F0000020B0EB514F04D1FFE701208DF80F0020
:10160000B9E02CE002984068022805D0FFE7029874
:101610004068032811D1FFE743F60000C4F202003E
:10162000006800F000710020B0EB516F04D1FFE7BB
:1016300001208DF80F009EE010E043F60000C4F298
:101640000200006800F002010020B0EB510F04D14D
:10165000FFE701208DF80F008DE0FFE7FFE743F67D
:101660000801C4F20201086820F00300029A5268DF
:1016700010430860FFF798FE0090FFE743F608006C
:10168000C4F20200006800F00C0002994968B0EB57
:10169000810F0ED0FFE7FFF787FE0099401A41F255
:1016A0008931884204D3FFE703208DF80F0062E000
:1016B000E4E7FFE7019843F60041C4F2020109683C
:1016C00001F00701884212D2FFE7019943F600407A
:1016D000C4F202000170006800F00700019988421E
:1016E00004D0FFE701208DF80F0044E0FFE70298E7
:1016F0000078400700280CD5FFE743F60801C4F244
:101700000201086820F4E050029AD2681043086091
:10171000FFE702980078000700280DD5FFE743F6A1
:101720000801C4F20201086820F46040029A1269BC
:1017300040EAC2000860FFE700F04CF843F60801F9
:10174000C4F202010968C9B20A0945F24A31C0F679
:101750000001895CC84040F20401C2F20001086047
:1017600040F20C00C2F200000068FFF74DFE0020BE
:101770008DF80F00FFE79DF80F0004B080BD00005A
:1017800040F20400C2F200000068704780B5FFF725
:10179000F7FF43F60801C4F202010968C1F382228F
:1017A00045F25A31C0F60001895CC84080BD000096
:1017B00080B5FFF7E5FF43F60801C4F202010968AE
:1017C00089B24A0B45F25A31C0F60001895CC84023
:1017D00080BD000080B586B0002005900490039085
:1017E000029043F60800C4F20200006800F00C000A
:1017F0000146019140B1FFE7019804280AD0FFE7B4
:10180000019808280CD04FE042F20040C0F2F400EA
:1018100002904FE047F64000C0F27D10029049E090
:1018200043F60400C4F20200016801F03F01059193
:1018300000684002002813D5FFE743F60400C4F215
:1018400002000068C0F3881047F64001C0F27D1125
:10185000A0FB0101059A0023FEF7B2FC049012E000
:1018600043F60400C4F202000068C0F3881042F29C
:101870000041C0F2F401A0FB0101059A0023FEF72C
:101880009FFC0490FFE743F60400C4F202000068E6
:1018900000F44031022000EBD1300390049803990A
:1018A000B0FBF1F0029005E042F20040C0F2F4001B
:1018B0000290FFE7029806B080BD000080B586B0B8
:1018C0000490049820B9FFE701208DF8170050E339
:1018D00004980078C007002800F0A580FFE743F6D1
:1018E0000800C4F20200006800F00C00042813D0C5
:1018F000FFE743F60800C4F20200006800F00C00A5
:1019000008281ED1FFE743F60400C4F20200006875
:101910004002002815D5FFE743F60000C4F202009C
:10192000006800F400310020B0EB514F08D0FFE711
:101930000498406820B9FFE701208DF8170018E3EC
:1019400070E0FFE704984068B0F5803F09D1FFE7F9
:1019500043F60001C4F20201086840F480300860D8
:1019600020E004984068B0F5A02F0DD1FFE743F6C2
:101970000001C4F20201086840F480200860086891
:1019800040F4803008600CE043F60001C4F202012C
:10199000086820F480300860086820F4802008601F
:1019A000FFE7FFE7FFE704984068E8B1FFE7FFF7CC
:1019B000FBFC0390FFE743F60000C4F2020000685E
:1019C00000F400310020B0EB514F0CD1FFE7FFF7DE
:1019D000EBFC0399401A652804D3FFE703208DF838
:1019E0001700C6E2E7E71CE0FFF7DEFC0390FFE725
:1019F00043F60000C4F20200006800F40031002049
:101A0000B0EB514F0CD0FFE7FFF7CEFC0399401A23
:101A1000652804D3FFE703208DF81700A9E2E7E764
:101A2000FFE7FFE7FFE7049800788007002840F110
:101A30009680FFE743F60800C4F20200006810F049
:101A40000C0F13D0FFE743F60800C4F20200006851
:101A500000F00C0008282CD1FFE743F60400C4F284
:101A6000020000684002002823D4FFE743F600008C
:101A7000C4F20200006800F002010020B0EB510F38
:101A800009D0FFE70498C068012804D0FFE70120CF
:101A90008DF817006DE243F60001C4F202010868F8
:101AA00020F0F800049A126940EAC2000860FFE7DB
:101AB00054E00498C06870B3FFE70021C4F24721E6
:101AC00001200860FFF770FC0390FFE743F6000079
:101AD000C4F20200006800F002010020B0EB510FD8
:101AE0000CD1FFE7FFF760FC0399401A032804D3E9
:101AF000FFE703208DF817003BE2E7E743F600011C
:101B0000C4F20201086820F0F800049A126940EA61
:101B1000C200086021E00021C4F2472100200860D3
:101B2000FFF742FC0390FFE743F60000C4F2020017
:101B3000006800F002010020B0EB510F0CD0FFE76D
:101B4000FFF732FC0399401A032804D3FFE7032070
:101B50008DF817000DE2E7E7FFE7FFE7FFE70498DE
:101B60000078000700284BD5FFE70498406918B3B8
:101B7000FFE740F68061C4F2472101200860FFF7CB
:101B800013FC0390FFE743F67400C4F20200006800
:101B900000F002010020B0EB510F0CD1FFE7FFF77E
:101BA00003FC0399401A032804D3FFE703208DF8B0
:101BB0001700DEE1E7E722E040F68061C4F247214A
:101BC00000200860FFF7F0FB0390FFE743F6740086
:101BD000C4F20200006800F002010020B0EB510FD7
:101BE0000CD0FFE7FFF7E0FB0399401A032804D36A
:101BF000FFE703208DF81700BBE1E7E7FFE7FFE70A
:101C0000049800784007002840F1CE80FFE70020CC
:101C10008DF8070043F64000C4F202000068C000DF
:101C2000002815D4FFE7FFE70020009043F64000AE
:101C3000C4F20200016841F080510160006800F0C8
:101C4000805000900098FFE701208DF80700FFE723
:101C500047F20000C4F200000068C005002822D44A
:101C6000FFE747F20001C4F20001086840F4807009
:101C70000860FFF799FB0390FFE747F20000C4F20A
:101C800000000068C00500280CD4FFE7FFF78CFBBC
:101C90000399401A032804D3FFE703208DF81700A7
:101CA00067E1EAE7FFE7FFE704988068012809D1C8
:101CB000FFE743F67001C4F20201086840F001003A
:101CC00008601FE00498806805280DD1FFE743F6FF
:101CD0007001C4F20201086840F00400086008685E
:101CE00040F0010008600CE043F67001C4F202010C
:101CF000086820F001000860086820F0040008600F
:101D0000FFE7FFE7FFE704988068F8B1FFE7FFF718
:101D10004BFB0390FFE743F67000C4F2020000683B
:101D200000F002010020B0EB510F0ED1FFE7FFF7EA
:101D30003BFB0399401A41F28931884204D3FFE703
:101D400003208DF8170014E1E5E71EE0FFF72CFBF8
:101D50000390FFE743F67000C4F20200006800F051
:101D600002010020B0EB510F0ED0FFE7FFF71CFB84
:101D70000399401A41F28931884204D3FFE70320D6
:101D80008DF81700F5E0E5E7FFE79DF8070001286B
:101D900009D1FFE743F64001C4F20201086820F0D0
:101DA00080500860FFE7FFE704988069002800F092
:101DB000DC80FFE743F60800C4F20200006800F090
:101DC0000C00082800F08580FFE70498806902284D
:101DD0005CD1FFE76021C4F2472100200860FFF7D3
:101DE000E3FA0390FFE743F60000C4F20200006844
:101DF00000F000710020B0EB516F0CD0FFE7FFF74F
:101E0000D3FA0399401A032804D3FFE703208DF87F
:101E10001700AEE0E7E70499C869D1F820C04B6A23
:101E20008A6A40EA0C0040EA8310D2034FF6FF733F
:101E30009A43A2F580321043C96A40EA016043F632
:101E40000401C4F2020108606021C4F247210120AC
:101E50000860FFF7A9FA0390FFE743F60000C4F219
:101E60000200006800F000710020B0EB516F0CD14F
:101E7000FFE7FFF799FA0399401A032804D3FFE715
:101E800003208DF8170074E0E7E721E06021C4F239
:101E9000472100200860FFF787FA0390FFE743F629
:101EA0000000C4F20200006800F000710020B0EBF6
:101EB000516F0CD0FFE7FFF777FA0399401A032818
:101EC00004D3FFE703208DF8170052E0E7E7FFE7B0
:101ED0004AE004988069012804D1FFE701208DF8C9
:101EE000170046E043F60400C4F2020000680290C6
:101EF00004988069012831D0FFE7029800F480003F
:101F00000499C969884229D1FFE7029800F03F008F
:101F10000499096A884221D1FFE7029847F6C07107
:101F200008400499496AB0EB811F17D1FFE7029876
:101F300000F440300499896AC9034FF6FF72914357
:101F4000A1F58031884209D1FFE7029800F0706066
:101F50000499C96AB0EB016F04D0FFE701208DF846
:101F6000170006E0FFE7FFE7FFE700208DF8170006
:101F7000FFE79DF8170006B080BD000080B582B075
:101F80000190019801F0B4FC02B080BD85B00390CF
:101F90000291FFE7039890F83C00012804D1FFE785
:101FA00002208DF813007EE00399012081F83C00A7
:101FB000FFE7FFE70399022081F83D0003980068DE
:101FC000406801900398006880680090019820F0B4
:101FD00070000190029801680198084301900198EF
:101FE000039909684860039800680021C4F2010160
:101FF00088423CD0FFE703980068B0F1804F36D0AC
:10200000FFE70398006840F20041C4F200018842F3
:102010002DD0FFE70398006840F60001C4F20001EC
:10202000884224D0FFE70398006840F60041C4F2DC
:10203000000188421BD0FFE70398006840F200418E
:10204000C4F20101884212D0FFE70398006844F20D
:102050000001C4F20101884209D0FFE7039800683B
:1020600041F60001C4F2000188420ED1FFE700985A
:1020700020F080000090029841680098084300908A
:102080000098039909688860FFE70399012081F8A7
:102090003D00FFE70399002081F83C00FFE70020A6
:1020A0008DF81300FFE79DF8130005B0704700009E
:1020B00080B582B00090009820B9FFE701208DF82C
:1020C00007003FE0009890F83D0040B9FFE7009915
:1020D000002081F83C00009800F038F8FFE70099F4
:1020E000022081F83D00009951F8040B01F096FCA4
:1020F0000099012081F84600FFE70099012081F84E
:102100003E00009981F83F00009981F84000009955
:1021100081F84100FFE7FFE70099012081F84200C4
:10212000009981F84300009981F84400009981F8F2
:102130004500FFE70099012081F83D0000208DF85F
:102140000700FFE79DF8070002B080BD84B0039050
:102150000398006840F20041C4F20001884212D1A5
:10216000FFE7FFE70020029043F64000C4F20200C0
:10217000016841F002010160006800F00200029075
:102180000298FFE737E00398006840F60001C4F2C8
:102190000001884212D1FFE7FFE70020019043F6DB
:1021A0004000C4F20200016841F0040101600068CF
:1021B00000F0040001900198FFE71BE0039800681D
:1021C00040F60041C4F20001884212D1FFE7FFE768
:1021D0000020009043F64000C4F20200016841F084
:1021E00008010160006800F0080000900098FFE717
:1021F000FFE7FFE7FFE704B07047000080B586B057
:102200000490039100208DF80B00FFE7049890F8EC
:102210003C00012804D1FFE702208DF81700ABE055
:102220000499012081F83C00FFE7FFE704990220B0
:1022300081F83D000498006880680190019820F0C2
:1022400077000190019820F47F4001900198049953
:1022500009688860039800680090002872D0FFE742
:10226000009810286ED0FFE7009820286AD0FFE77A
:102270000098302866D0FFE70098402855D0FFE747
:102280000098502837D0FFE70098602840D0FFE73B
:10229000009870280BD0FFE70098B0F5805F05D05C
:1022A000FFE70098B0F5005F16D052E055E00498C3
:1022B0000068039B5A689968DB6801F0A3FC0498E6
:1022C000006880680190019840F0770001900198C3
:1022D00004990968886040E004980068039B5A6884
:1022E0009968DB6801F08EFC04980168886840F406
:1022F0008040886031E004980068039A5168D26891
:1023000001F06CFE04980068502101F095FC24E077
:1023100004980068039A5168D26801F087FE049817
:102320000068602101F088FC17E004980068039AB7
:102330005168D26801F052FE04980068402101F013
:102340007BFC0AE0049800680399096801F074FCBA
:1023500003E001208DF80B00FFE70499012081F8CC
:102360003D00FFE70499002081F83C00FFE79DF85D
:102370000B008DF81700FFE79DF8170006B080BD31
:1023800080B58CB00B9000200A90099008900790BF
:1023900006900B98006840F20041C4F200018842A8
:1023A00043D1FFE7FFE70020059043F63000C4F279
:1023B0000200016841F001010160006800F00100C5
:1023C00005900598FFE7FFE70020049043F63000F2
:1023D000C4F20200016841F002010160006800F0EF
:1023E000020004900498FFE7C020069002200190AC
:1023F000079000210091089109910A900020C4F2F1
:10240000020006A90291FEF7DBFD009A01980299ED
:10241000032306930790089209920A9040F2004025
:10242000C4F20200FEF7CCFD2BE00B98006840F6EA
:102430000001C4F20001884222D1FFE7FFE700203B
:10244000039043F63000C4F20200016841F002013B
:102450000160006800F0020003900398FFE74FF46A
:1024600070700690022007900021089109910A904F
:1024700040F20040C4F2020006A9FEF7A1FDFFE70A
:10248000FFE70CB080BD000080B586B004900391DA
:10249000029200208DF80700FFE7049890F83C00B6
:1024A000012804D1FFE702208DF8170089E0049984
:1024B000012081F83C00FFE7FFE7029800900C281C
:1024C00000F270800099DFE801F0076D6D6D206DFE
:1024D0006D6D3A6D6D6D530004980068039901F0BD
:1024E000C1FB04980168886940F00800886104987D
:1024F0000168886920F004008861039802690498E3
:10250000016888691043886150E004980068039965
:1025100001F01EFC04980168886940F4006088613D
:1025200004980168886920F48060886103980269D2
:1025300004980168886940EA0220886136E00498BE
:102540000068039901F07EFC04980168C86940F0B6
:102550000800C86104980168C86920F00400C861D7
:102560000398026904980168C8691043C8611DE0B6
:1025700004980068039901F0DFFC04980168C869B9
:1025800040F40060C86104980168C86920F4806064
:10259000C8610398026904980168C86940EA02208A
:1025A000C86103E001208DF80700FFE7FFE7049909
:1025B000002081F83C00FFE79DF807008DF8170028
:1025C000FFE79DF8170006B080BD000080B582B01F
:1025D0000090009820B9FFE701208DF807003FE048
:1025E000009890F83D0040B9FFE70099002081F87D
:1025F0003C00009800F038F8FFE70099022081F8CD
:102600003D00009951F8040B01F008FA00990120EF
:1026100081F84600FFE70099012081F83E0000990B
:1026200081F83F00009981F84000009981F841004D
:10263000FFE7FFE70099012081F84200009981F847
:102640004300009981F84400009981F84500FFE7B4
:102650000099012081F83D0000208DF80700FFE778
:102660009DF8070002B080BD81B0009001B07047B6
:1026700080B58CB00A900991099828B9FFE70A98AB
:1026800090F83E0007901CE00998042805D1FFE768
:102690000A9890F83F00069010E00998082805D1A4
:1026A000FFE70A9890F84000059004E00A9890F837
:1026B00041000590FFE705980690FFE70698079010
:1026C000FFE70798012804D0FFE701208DF82F00CD
:1026D000AFE0099828B9FFE70A99022081F83E0087
:1026E0001EE00998042806D1FFE70A99022081F824
:1026F0003F00049012E00998082806D1FFE70A99E4
:10270000022081F84000039005E00A99022081F838
:1027100041000390FFE703980490FFE70498FFE768
:102720000A98006809990122019201F04FFA019874
:102730000A9909680022C4F20102914202900CD069
:10274000FFE70A9800684FF60041CBF6FE71084497
:10275000B0FA80F040090290FFE70298C00738B154
:10276000FFE70A980168486C40F400404864FFE7BE
:102770000A9800680021C4F2010188423CD0FFE7BA
:102780000A980068B0F1804F36D0FFE70A980068D9
:1027900040F20041C4F2000188422DD0FFE70A98C0
:1027A000006840F60001C4F20001884224D0FFE72F
:1027B0000A98006840F60041C4F2000188421BD02C
:1027C000FFE70A98006840F20041C4F20101884224
:1027D00012D0FFE70A98006844F20001C4F2010138
:1027E000884209D0FFE70A98006841F60001C4F268
:1027F0000001884212D1FFE70A980068806800F063
:10280000070008900898062807D0FFE70A98016893
:10281000086840F001000860FFE706E00A980168D8
:10282000086840F001000860FFE700208DF82F00E5
:10283000FFE79DF82F000CB080BD000080B586B08A
:1028400004900391ADF80A20049890F842002028E3
:102850004DD1FFE7039820B1FFE7BDF80A0020B98A
:10286000FFE701208DF8170045E004990120086377
:1028700004990020486304980399BDF80A2001F0E8
:10288000AFFE8DF809009DF8090058BBFFE70498DA
:10289000006B012821D1FFE7FFE700200190049899
:1028A00000680068019004980068406801900198F1
:1028B000FFE7FFE7FFE70498006850E8030F40F0E8
:1028C00010000090FFE700990498026842E80310A6
:1028D0000028F0D1FFE7FFE703E001208DF80900B1
:1028E000FFE7FFE79DF809008DF8170003E00220DD
:1028F0008DF81700FFE79DF8170006B080BD0000B7
:1029000080B584B00390ADF80A10039840F2A81186
:10291000C2F20001884212D1FFE740F2A810C2F2D1
:102920000000019000F00EF802F05EF8019840F20D
:10293000CC21C2F200011E22FFF780FFFFE704B0A6
:1029400080BD000080B584B0039000200290039801
:1029500000684069C0B2C0090290039890F8410035
:10296000212823D1FFE7029800B3FFE7FFE7FFE745
:102970000398006850E8050F20F080000190FFE701
:1029800001990398026842E805100028F0D1FFE79A
:10299000FFE70398806B28B1FFE70398806BFDF792
:1029A000ABFFFFE7039801F0ABFCFFE7039800687B
:1029B0004069C0F380100290039890F842002228EA
:1029C00023D1FFE7029800B3FFE7FFE7FFE7039893
:1029D000006850E8050F20F040000090FFE70099E4
:1029E0000398026842E805100028F0D1FFE7FFE7EE
:1029F0000398C06B28B1FFE70398C06BFDF77CFF1D
:102A0000FFE7039801F01EFCFFE7002004B080BD43
:102A100081B0009001B0704780B592B011901198CC
:102A200000680068109011980068C0680F901198B5
:102A3000006840690E9000200D900C90109800F0F6
:102A40000F000D900D9888B9FFE79DF840008006B3
:102A500000280AD5FFE79DF83C008006002804D531
:102A6000FFE7119801F068FCEAE1FFE70D98002804
:102A700000F0C280FFE79DF83800C00738B9FFE7D3
:102A8000BDF83C0010F4907F00F0B680FFE79DF8A1
:102A90004000C00758B1FFE79DF83D00C00730B1C6
:102AA000FFE71199486C40F001004864FFE79DF88A
:102AB0004000400700280BD5FFE79DF83800C0070D
:102AC00030B1FFE71199486C40F002004864FFE71D
:102AD0009DF84000800700280BD5FFE79DF83800DF
:102AE000C00730B1FFE71199486C40F0040048641A
:102AF000FFE79DF840000007002811D5FFE79DF88B
:102B00003C008006002805D4FFE79DF83800C00788
:102B100030B1FFE71199486C40F008004864FFE7C6
:102B20001198406C002866D0FFE79DF840008006B1
:102B300000280AD5FFE79DF83C008006002804D550
:102B4000FFE7119801F0F8FBFFE711980068406972
:102B5000C0F380100C901198406C0007002804D43A
:102B6000FFE70C9800283ED0FFE7119801F06AFBC0
:102B7000119800684069400600282FD5FFE7FFE75D
:102B8000FFE71198006850E8050F20F040000B9017
:102B9000FFE70B991198026842E805100028F0D170
:102BA000FFE7FFE71198C06B98B1FFE71198C16B81
:102BB00044F28100C0F6000008651198C06BFDF773
:102BC00011FF28B1FFE71198C06B016D8847FFE73F
:102BD00003E01198FFF71CFFFFE703E01198FFF7F0
:102BE00017FFFFE706E01198FFF712FF1199002089
:102BF0004864FFE7FFE723E11198006B012840F0EC
:102C0000FF80FFE79DF84000C006002840F1F880F3
:102C1000FFE79DF83C00C006002840F1F180FFE787
:102C2000FFE700200A901198006800680A90119848
:102C3000006840680A900A98FFE7119800684069A8
:102C40004006002840F18280FFE71198C06B0068C1
:102C50004068ADF82600BDF82600002875D0FFE7D3
:102C6000BDF826001199898D88426EDAFFE7BDF81C
:102C700026001199C8851198C06BC069B0F5807F96
:102C800058D0FFE7FFE7FFE71198006850E8030F0F
:102C900020F480700890FFE708991198026842E8D4
:102CA00003100028F0D1FFE7FFE7FFE7FFE71198E7
:102CB000006850E8050F20F001000790FFE7079932
:102CC0001198026842E805100028F0D1FFE7FFE7FD
:102CD000FFE7FFE71198006850E8050F20F040007B
:102CE0000690FFE706991198026842E8051000284F
:102CF000F0D1FFE7FFE71199202081F842001199F8
:102D000000200863FFE7FFE71198006850E8030F11
:102D100020F010000590FFE705991198026842E83D
:102D200003100028F0D1FFE7FFE71198C06BFDF713
:102D3000E3FDFFE71199022048631198818DC28D50
:102D4000891A89B2FFF7DCFDFFE779E01199888DD8
:102D5000C98D401AADF812001198C08D00284ED0D0
:102D6000FFE7BDF81200002849D0FFE7FFE7FFE7C3
:102D70001198006850E8030F20F490700390FFE76B
:102D800003991198026842E803100028F0D1FFE788
:102D9000FFE7FFE7FFE71198006850E8050F20F014
:102DA00001000290FFE702991198026842E80510BD
:102DB0000028F0D1FFE7FFE71199202081F84200B9
:102DC000119900200863FFE7FFE71198006850E8B9
:102DD000030F20F010000190FFE70199119802689D
:102DE00042E803100028F0D1FFE7FFE71199022025
:102DF00048631198BDF81210FFF782FDFFE71FE04E
:102E00009DF84000000600280AD5FFE79DF83C0029
:102E10000006002804D5FFE7119801F067FC0FE0D9
:102E20009DF84000400600280AD5FFE79DF83C00C9
:102E30004006002804D5FFE7119801F04DFAFFE79E
:102E400012B080BD80B582B00090009820B9FFE735
:102E500001208DF8070040E00098806908B1FFE785
:102E600000E0FFE7009890F8410040B9FFE70099C3
:102E7000002081F84000009800F034F8FFE7009946
:102E8000242081F8410000980168C86820F40050AF
:102E9000C860009801F006FB00980168086920F4FA
:102EA0009040086100980168486920F02A00486154
:102EB00000980168C86840F40050C860009900207C
:102EC0004864009A202182F84110009A82F842104A
:102ED000009948638DF80700FFE79DF8070002B0EE
:102EE00080BD000080B592B01190002010900F902E
:102EF0000E900D900C901198006841F20001C4F200
:102F00000101884240F09280FFE7FFE700200B902C
:102F100043F64400C4F20200016841F01001016070
:102F2000006800F010000B900B98FFE7FFE700200F
:102F30000A9043F63000C4F20200016841F001013A
:102F40000160006800F001000A900A98FFE74FF462
:102F5000C0600C9002200D90002002900E90032083
:102F60000F90072010900020C4F202000CA9FEF779
:102F700027F8029940F21000C2F20000039046F2D6
:102F80004042C4F2020202604FF00062426081607F
:102F9000C1604FF48062026141618161C16101627F
:102FA0004162FDF7D1FE18B1FFE7FDF7A1FCFFE795
:102FB000FFE7119840F21001C2F20001C1631198BD
:102FC0008863FFE740F27000C2F20000019046F211
:102FD000B841C4F2020101604FF00061416040213C
:102FE00081600021C1604FF48062026141618161B2
:102FF000C16101624162FDF7A7FE18B1FFE7FDF76D
:1030000077FCFFE7FFE7119840F27001C2F2000180
:10301000816311988863FFE7252000900022114604
:10302000FEF75AFA0098FEF74DFAB9E011980068D9
:1030300044F20041C4F20001884233D1FFE7FFE7C8
:103040000020099043F64000C4F20200016841F4F8
:1030500000310160006800F4003009900998FFE732
:10306000FFE70020089043F63000C4F20200016838
:1030700041F001010160006800F00100089008982B
:10308000FFE70C200C9002200D9000200E900320F2
:103090000F90072010900020C4F202000CA9FDF749
:1030A0008FFF7CE01198006844F60001C4F2000133
:1030B000884235D1FFE7FFE70020079043F6400044
:1030C000C4F20200016841F480210160006800F44C
:1030D000802007900798FFE7FFE70020069043F65F
:1030E0003000C4F20200016841F002010160006892
:1030F00000F0020006900698FFE74FF440600C9045
:1031000002200D9000200E9003200F9007201090B9
:1031100040F20040C4F202000CA9FDF751FF3DE06F
:103120001198006841F20041C4F20101884234D193
:10313000FFE7FFE70020059043F64400C4F20200D9
:10314000016841F020010160006800F02000059056
:103150000598FFE7FFE70020049043F63000C4F233
:103160000200016841F004010160006800F0040001
:1031700004900498FFE7C0200C9002200D900020DE
:103180000E9003200F900820109040F60000C4F22B
:1031900002000CA9FDF714FFFFE7FFE7FFE7FFE7D9
:1031A00012B080BD81B0009001B0704781B0009036
:1031B00001B0704780B58AB008900791ADF81A2029
:1031C000059300200290089890F84100202840F0D4
:1031D0008180FFE7079820B1FFE7BDF81A0020B90A
:1031E000FFE701208DF8270078E008990020486467
:1031F0000899212081F84100FEF7D6F80290BDF829
:103200001A0008998884BDF81A000899C88408989B
:103210008068B0F5805F09D1FFE70898006928B998
:10322000FFE7002004900798039004E007980490BB
:1032300000200390FFE7FFE70898C08C78B3FFE712
:103240000898029B05996A4611608021002201F0CE
:1032500097FA40B1FFE70899202081F84100032048
:103260008DF827003AE0049858B9FFE703980088E2
:103270006FF35F2008990968486003980230039053
:1032800008E00498007808990968486004980130BB
:103290000490FFE70899C88C0138C884CCE70898E7
:1032A000029B05996A4611604021002201F068FAEC
:1032B00040B1FFE70899202081F8410003208DF8F4
:1032C00027000BE00899202081F8410000208DF8AC
:1032D000270003E002208DF82700FFE79DF8270074
:1032E0000AB080BD81B0009001B07047FFE7FEE7F3
:1032F00080B584B0FFE70020039043F63000C4F2AD
:103300000200016841F480010160006800F480005F
:1033100003900398FFE73A200090002201921146A3
:10332000FEF7DAF80098FEF7CDF8019A46200290F1
:103330001146FEF7D1F80298FEF7C4F804B080BD3C
:1033400080B594B0002013901290119010900F90BF
:10335000FFE700200E9043F63000C4F2020001683F
:1033600041F004010160006800F004000E900E9826
:10337000FFE7FFE700200D9043F63000C4F20200A3
:10338000016841F080010160006800F080000D904C
:103390000D98FFE7FFE700200C9043F63000C4F2E1
:1033A0000200016841F001010160006800F00100C5
:1033B0000C900C98FFE7FFE700200B9043F63000DD
:1033C000C4F20200016841F002010160006800F0EF
:1033D00002000B900B98FFE740F60000C4F20200D9
:1033E00005904EF20161019100220892FDF7C4FFA1
:1033F000089A40F20040C4F2020003904FF23001FC
:103400000291FDF7B9FF05984FF4807104910122F4
:103410000792FDF7B1FF089A0020C4F2020009905C
:103420004FF400410691FDF7A7FF019B0598079A0D
:1034300008990F931092119112910FA90A91FDF71B
:10344000BFFDDDF808C00398079B089A0A99CDF8DC
:103450003CC0109311921292FDF7B2FDDDF810C03E
:103460000598079B089A0A99CDF83CC010931192D1
:1034700002221292FDF7A4FDDDF818C0079B089AFE
:1034800009980A99CDF83CC0109311921292FDF759
:1034900097FD14B080BD000080B58EB00021009172
:1034A0000D910C910B910A91099108910791069148
:1034B0000591049103910291019140F2D000C2F272
:1034C000000040F20042C4F20002026040F24732C3
:1034D0004260816040F2CF72C260016180218161EF
:1034E000FEF7E6FD18B1FFE7FDF702FAFFE74FF43C
:1034F00080500A9040F2D000C2F200000AA9FEF704
:103500007DFE18B1FFE7FDF7F3F9FFE740F2D000C9
:10351000C2F20000FFF75AF818B1FFE7FDF7E8F92B
:10352000FFE700200890099040F2D000C2F20000AE
:1035300008A9FEF72BFD18B1FFE7FDF7D9F9FFE762
:1035400060200190002202920392059240F2D00086
:10355000C2F2000001A9FEF797FF18B1FFE7FDF7DF
:10356000C7F9FFE740F2D000C2F2000001A904222F
:10357000FEF78AFF18B1FFE7FDF7BAF9FFE740F25F
:10358000D000C2F2000001A90822FEF77DFF18B1A9
:10359000FFE7FDF7ADF9FFE740F2D000C2F200000F
:1035A00001A90C22FEF770FF18B1FFE7FDF7A0F9A3
:1035B000FFE740F2D000C2F20000FEF7E1FE0EB0DD
:1035C00080BD000080B58EB0002100910D910C915E
:1035D0000B910A9109910891079106910591049127
:1035E00003910291019140F21810C2F2000040F6DE
:1035F0000002C4F20002026040F247324260816081
:1036000040F2CF72C260016180218161FEF750FDFE
:1036100018B1FFE7FDF76CF9FFE74FF480500A900F
:1036200040F21810C2F200000AA9FEF7E7FD18B137
:10363000FFE7FDF75DF9FFE740F21810C2F2000066
:10364000FEF7C4FF18B1FFE7FDF752F9FFE70020CE
:103650000890099040F21810C2F2000008A9FEF785
:1036600095FC18B1FFE7FDF743F9FFE760200190F3
:10367000002202920392059240F21810C2F200005A
:1036800001A9FEF701FF18B1FFE7FDF731F9FFE7E8
:1036900040F21810C2F2000001A90422FEF7F4FE65
:1036A00018B1FFE7FDF724F9FFE740F21810C2F266
:1036B000000001A90822FEF7E7FE18B1FFE7FDF7B9
:1036C00017F9FFE740F21810C2F2000001A90C221E
:1036D000FEF7DAFE18B1FFE7FDF70AF9FFE740F25F
:1036E0001810C2F20000FEF74BFE0EB080BD0000C5
:1036F00080B588B000210191079106910591049150
:103700000391029140F26010C2F2000040F60042C4
:10371000C4F200020260416081604FF0FF32C2607B
:1037200001618161FEF7C4FC18B1FFE7FDF7E0F825
:10373000FFE74FF48050049040F26010C2F20000A6
:1037400004A9FEF75BFD18B1FFE7FDF7D1F8FFE72D
:1037500000200290039040F26010C2F2000002A923
:10376000FEF714FC18B1FFE7FDF7C2F8FFE708B059
:1037700080BD000080B582B040F2A810C2F2000007
:10378000019041F20001C4F2010101604FF4E13106
:10379000416000218160C16001610C224261816150
:1037A000C161FFF74FFB18B1FFE7FDF7A1F8FFE795
:1037B00002B080BD80B582B040F2F010C2F20000CD
:1037C000019044F20041C4F2000101604FF4E13184
:1037D000416000218160C16001610C224261816110
:1037E000C161FFF72FFB18B1FFE7FDF781F8FFE795
:1037F00002B080BD80B582B040F23820C2F2000035
:10380000019044F60001C4F2000101604FF4E1317F
:10381000416000218160C16001610C2242618161CF
:10382000C161FFF70FFB18B1FFE7FDF761F8FFE794
:1038300002B080BD80B582B040F28020C2F20000AC
:10384000019041F20041C4F2010101604FF4E13105
:10385000416000218160C16001610C22426181618F
:10386000C161FFF7EFFA18B1FFE7FDF741F8FFE795
:1038700002B080BDFFE7FEE7FFE7FEE788B00790F4
:1038800006910592079800F0070004900498C0F193
:103890000700052803D3FFE70420019004E0049803
:1038A000C0F107000190FFE70198039004980430ED
:1038B000062803D8FFE70020009003E004980338AF
:1038C0000090FFE70098029006980399012202FAFF
:1038D00001F101390840029B984005999A40013A4C
:1038E0001140084308B0704770470000704700005F
:1038F00080B582B0009000980138B0F1807F03D38A
:10390000FFE70120019019E0009801384EF2140100
:10391000CEF2000108604FF0FF300F2100F0C8FF29
:103920004EF21801CEF20001002008604EF21002A3
:10393000CEF20002072111600190FFE7019802B06A
:1039400080BD000080B5FDF735FD80BD80B594B029
:1039500008A83021FCF76CFC002007900690059029
:1039600004900390FFE70020029043F64000C4F269
:103970000200016841F080510160006800F0805051
:1039800002900298FFE7FFE70020019047F2000055
:10399000C4F20000016841F480410160006800F455
:1039A000804001900198FFE70220089001210B91CF
:1039B00010210C910E9000210F9108211091A82147
:1039C000119112900420139008A8FDF777FF18B109
:1039D000FFE7FCF78DFFFFE70F2003900220049024
:1039E000002005904FF4A05006904FF480500790AF
:1039F00003A80521FDF792FD18B1FFE7FCF778FF5A
:103A0000FFE714B080BD00004EF68851CEF20001F1
:103A1000086840F4700008607047000083B00290AE
:103A2000019102980068009002980021C4F20101FF
:103A3000884225D0FFE70298B0F1804F20D0FFE701
:103A4000029840F20041C4F20001884218D0FFE71A
:103A5000029840F60001C4F20001884210D0FFE74E
:103A6000029840F60041C4F20001884208D0FFE706
:103A7000029840F20041C4F2010188420AD1FFE7F6
:103A8000009820F070000090019841680098084369
:103A90000090FFE702980021C4F20101884255D04E
:103AA000FFE70298B0F1804F50D0FFE7029840F254
:103AB0000041C4F20001884248D0FFE7029840F676
:103AC0000001C4F20001884240D0FFE7029840F6AE
:103AD0000041C4F20001884238D0FFE7029840F26A
:103AE0000041C4F20101884230D0FFE7029844F25D
:103AF0000001C4F20101884228D0FFE7029844F295
:103B00000041C4F20101884220D0FFE7029844F648
:103B10000001C4F20101884218D0FFE7029841F683
:103B20000001C4F20001884210D0FFE7029841F67C
:103B30000041C4F20001884208D0FFE7029842F237
:103B40000001C4F2000188420AD1FFE7009820F486
:103B5000407000900198C168009808430090FFE70A
:103B6000009820F08000019949690843009000986E
:103B700002990860019880680299C86201980068FB
:103B80000299886202980021C4F20101884208D09B
:103B9000FFE7029840F20041C4F20101884205D1DA
:103BA000FFE70198006902990863FFE70299012085
:103BB000486102980069C00730B1FFE702990869BF
:103BC00020F001000861FFE703B0704784B0039064
:103BD00002910192029800F01F010120884000909C
:103BE000009A0399086A904308620198029901F0CB
:103BF0001F0100FA01F20399086A1043086204B039
:103C00007047000085B004900391029201930498DC
:103C100080680090009820F47F40009003980299FB
:103C2000019A41EA0221014300980843009000985C
:103C30000499886005B0704783B0029001910298A2
:103C400080680090009820F0700000900198009922
:103C5000084340F00700009000980299886003B084
:103C60007047000085B0049003910498006A0190A9
:103C70000499086A20F001000862049840680090E6
:103C8000049880690290029820F0700002900298D7
:103C900020F0030002900398016802980843029004
:103CA000019820F002000190039881680198084370
:103CB000019004980021C4F20101884208D0FFE776
:103CC000049840F20041C4F2010188420ED1FFE79E
:103CD000019820F0080001900398C16801980843FA
:103CE0000190019820F004000190FFE70498002162
:103CF000C4F20101884208D0FFE7049840F2004175
:103D0000C4F20101884213D1FFE7009820F48070CB
:103D10000090009820F4007000900398416900988A
:103D20000843009003988169009808430090FFE7DA
:103D30000098049948600298049988610398406843
:103D40000499486301980499086205B0704700001F
:103D500085B0049003910498006A01900499086A60
:103D600020F0100008620498406800900498806970
:103D70000290029820F4E0400290029820F44070F3
:103D8000029003980168029840EA0120029001988D
:103D900020F02000019003988168019840EA01100A
:103DA000019004980021C4F20101884208D0FFE785
:103DB000049840F20041C4F2010188420FD1FFE7AC
:103DC000019820F0800001900398C168019840EAB2
:103DD00001100190019820F040000190FFE7049845
:103DE0000021C4F20101884208D0FFE7049840F2A4
:103DF0000041C4F20101884215D1FFE7009820F488
:103E000080600090009820F4006000900398416961
:103E1000009840EA8100009003988169009840EA88
:103E200081000090FFE70098049948600298049987
:103E3000886103984068049988630198049908622E
:103E400005B0704785B0049003910498006A019012
:103E50000499086A20F48070086204984068009011
:103E60000498C0690290029820F0700002900298B5
:103E700020F0030002900398016802980843029022
:103E8000019820F40070019003988168019840EA3D
:103E90000120019004980021C4F20101884208D059
:103EA000FFE7049840F20041C4F2010188420FD1BB
:103EB000FFE7019820F4006001900398C168019821
:103EC00040EA01200190019820F480600190FFE712
:103ED00004980021C4F20101884208D0FFE7049849
:103EE00040F20041C4F20101884215D1FFE7009879
:103EF00020F480500090009820F400500090039827
:103F00004169009840EA0110009003988169009887
:103F100040EA01100090FFE7009804994860029879
:103F20000499C861039840680499C863019804998A
:103F3000086205B07047000085B0049003910498B2
:103F4000006A01900499086A20F48050086204987D
:103F5000406800900498C0690290029820F4E04004
:103F60000290029820F44070029003980168029831
:103F700040EA01200290019820F40050019003983B
:103F80008168019840EA0130019004980021C4F250
:103F90000101884208D0FFE7049840F20041C4F2D2
:103FA000010188420BD1FFE7009820F48040009087
:103FB00003984169009840EA81100090FFE700985B
:103FC0000499486002980499C8610398406804996C
:103FD000086401980499086205B0704785B00490A0
:103FE000039102920498006A00900499086A20F0F4
:103FF00001000862049880690190019820F0F000A7
:1040000001900299019840EA01100190009820F077
:104010000A000090039900980843009001980499C1
:10402000886100980499086205B0704785B00490D3
:10403000039102920498006A00900499086A20F0A3
:1040400010000862049880690190019820F4704083
:1040500001900299019840EA01300190009820F007
:10406000A00000900399009840EA01100090019888
:104070000499886100980499086205B070470000AF
:1040800080B582B001900198806B0090009900206B
:10409000C8850099C8840098FEF7BAFC02B080BDBC
:1040A00080B584B00390002002900398806B01904B
:1040B000019800684069C0B2C0090290019890F868
:1040C000410021280AD1FFE7029838B1FFE70199A2
:1040D0000020C884019800F013F9FFE701980068F8
:1040E0004069C0F380100290019890F842002228A5
:1040F0000AD1FFE7029838B1FFE701990020C8858F
:10410000019800F09FF8FFE70199486C40F010001B
:1041100048640198FEF77CFC04B080BD80B586B091
:1041200005900598806B0490059800680068C005AC
:1041300000285AD4FFE704990020C885FFE7FFE76D
:104140000498006850E8030F20F480700390FFE7A4
:1041500003990498026842E803100028F0D1FFE7B1
:10416000FFE7FFE7FFE70498006850E8050F20F03D
:1041700001000290FFE702990498026842E80510E6
:104180000028F0D1FFE7FFE7FFE7FFE704980068AA
:1041900050E8050F20F040000190FFE701990498D6
:1041A000026842E805100028F0D1FFE7FFE7049914
:1041B000202081F842000498006B012814D1FFE709
:1041C000FFE7FFE70498006850E8030F20F01000B5
:1041D0000090FFE700990498026842E80310002865
:1041E000F0D1FFE7FFE7FFE7FFE70499002048630E
:1041F0000498006B012805D1FFE70498818DFEF734
:104200007FFB03E00498FEF7CDFFFFE706B080BD1B
:1042100080B582B001900198806B009000990120D8
:1042200048630098006B012806D1FFE70098818D54
:104230004908FEF765FB03E00098FEF7B7FFFFE7CC
:1042400002B080BD84B00390FFE7FFE703980068E9
:1042500050E8030F20F490700290FFE70299039852
:10426000026842E803100028F0D1FFE7FFE7FFE70C
:10427000FFE70398006850E8050F20F00100019067
:10428000FFE701990398026842E805100028F0D181
:10429000FFE7FFE70398006B012814D1FFE7FFE772
:1042A000FFE70398006850E8030F20F0100000902B
:1042B000FFE700990398026842E803100028F0D154
:1042C000FFE7FFE7FFE70399202081F84200039909
:1042D0000020086304B0704780B582B00190019857
:1042E0000168C86820F04000C8600199202081F86A
:1042F00041000198FEF7F6FF002002B080BD0000EB
:1043000082B00190FFE7FFE70198006850E8030FD3
:1043100020F0C0000090FFE700990198026842E891
:1043200003100028F0D1FFE7FFE70199202081F872
:10433000410002B07047000080B586B00490049838
:1043400090F84200222840F0A480FFE7049880689B
:10435000B0F5805F15D1FFE70498006988B9FFE7E1
:10436000002003900498806A0290049800684068D6
:104370006FF35F20029908800499886A023088628E
:1043800025E00498806A03900020029004988068D9
:10439000B0F5805F08D0FFE70498806850B9FFE768
:1043A0000498006930B9FFE70498006840680399F1
:1043B000087007E004980068406800F07F000399E7
:1043C0000870FFE70499886A01308862FFE7049962
:1043D000C88D0138C8850004002856D1FFE704982D
:1043E0000168C86820F02000C86004980168C868A7
:1043F00020F48070C86004980168486920F00100CA
:1044000048610499202081F8420004990020486303
:104410000498006B012830D1FFE70499002008635D
:10442000FFE7FFE70498006850E8030F20F0100052
:104430000190FFE701990498026842E80310002800
:10444000F0D1FFE7FFE7049800680068C006002885
:104450000ED5FFE7FFE70020009004980068006891
:10446000009004980068406800900098FFE7FFE71C
:104470000498818DFEF744FA03E00498FEF792FE5B
:10448000FFE700208DF8170007E000208DF81700E7
:1044900003E002208DF81700FFE79DF8170006B033
:1044A00080BD000080B586B0059005980068006961
:1044B00020F44050059A1168D268104308610599AC
:1044C00088680B694A69C969184310430843049016
:1044D00005980068C06849F20C6188430499084354
:1044E00005990968C86005980068406920F4407023
:1044F000059A11689269104348610598006841F275
:104500000001C4F20101884209D0FFE70598006864
:1045100041F20041C4F20101884204D1FFE7FDF7F6
:1045200047F9039003E0FDF731F90390FFE70598A1
:10453000C069B0F5004F29D1FFE703981921A0FB0E
:104540000101059A1368029353685A00DB0FFBF7C9
:1045500037FE0299864648F21F53C5F2EB13AEFBB5
:104560000320420910014FF0640C02FB1CEC3222C4
:1045700002EBCC02A2FB0332F82303EA521300EB56
:104580004300C2F342121044886026E003981921C8
:10459000A0FB0101059A1368019353689A009B0FD1
:1045A000FBF70EFE0199844648F21F52C5F2EB124A
:1045B000ACFB02304309642003FB10CC322000EB3B
:1045C0000C10A0FB0202F02000EA521000EB0310D6
:1045D000C2F3431210448860FFE706B080BD0000BC
:1045E00080B588B007900691ADF816200698079917
:1045F0008862BDF8160007998885079900204864ED
:10460000079A222182F842100799CA6B44F21D11C1
:10461000C0F60001D1630799CA6B44F21121C0F6BC
:10462000000111640799CA6B44F2A101C0F60001B0
:10463000D1640799C96B086506A8049007980168BA
:10464000C06B0431049A1268BDF81630FCF734FCD4
:10465000FFE7002003900798006800680390079820
:104660000068406803900398FFE707980069A0B1CD
:10467000FFE7FFE7FFE70798006850E8030F40F403
:1046800080700290FFE702990798026842E80310E1
:104690000028F0D1FFE7FFE7FFE7FFE7FFE7079814
:1046A000006850E8050F40F001000190FFE7019914
:1046B0000798026842E805100028F0D1FFE7FFE7FD
:1046C000FFE7FFE70798006850E8050F40F040005B
:1046D0000090FFE700990798026842E8051000285B
:1046E000F0D1FFE7FFE7002008B080BD83B0019064
:1046F000019890F8410021283AD1FFE7019880689D
:10470000B0F5805F13D1FFE70198006978B9FFE742
:104710000198006A0090009800886FF35F2001996B
:10472000096848600199086A0230086208E0019A45
:10473000106A411C11620078019909684860FFE71E
:104740000199C88C0138C884000468B9FFE7019852
:104750000168C86820F08000C86001980168C868D6
:1047600040F04000C860FFE700208DF80B0003E038
:1047700002208DF80B00FFE79DF80B0003B0704797
:1047800080B586B0DDF820C0049003918DF80B2031
:104790000193FFE704980068006803990840401AF5
:1047A000B0FA80F040099DF80B1088424DD1FFE728
:1047B00008980130002847D0FFE7FCF7F5FD019984
:1047C000401A0899884203D8FFE7089820B9FFE704
:1047D00003208DF817003CE004980068C06840078B
:1047E000002830D5FFE7039880282CD0FFE70398F6
:1047F000402828D0FFE704980068006800F008010E
:104800000120B0EBD10F1DD1FFE7FFE700200090A2
:104810000498006800680090049800684068009060
:104820000098FFE70498FFF70DFD049908204864FD
:10483000FFE70499002081F84000FFE701208DF890
:10484000170006E0FFE7FFE7A4E700208DF8170058
:10485000FFE79DF8170006B080BD000080B540F26C
:10486000A810C2F20000FEF7D7F880BDFFE7FEE710
:1048700081B08DF803009DF9030000280ED4FFE7F6
:104880009DF9031001F01F02012090404A094EF2E9
:104890000011CEF2000141F82200FFE701B070479D
:1048A0004EF60C50CEF200000068C0F302207047B4
:1048B00082B08DF8070000919DF9070000280AD406
:1048C000FFE7009800019DF907104EF20042CEF27A
:1048D000000288540BE0009800019DF8071001F0D9
:1048E0000F014EF61452CEF200028854FFE702B0D8
:1048F0007047000083B00290029800F0070000901B
:104900004EF60C51CEF200010868019001984FF666
:10491000FF02104001900198009A40EA0220002214
:10492000C0F2FA52104301900198086003B070473A
:1049300080B582B00190009140F2F010C2F2000008
:1049400001A901224FF6FF73FEF734FC019802B073
:1049500080BD000080B588B0002001900790FCF772
:1049600037FDFEF7F3FFFEF7EBFCFEF7C1FCFEF7A9
:1049700093FDFEF727FEFEF7BBFEFEF7FBFEFEF7FC
:1049800019FFFEF737FFFEF755FF019940F21810A7
:10499000C2F200000290FDF76BFE02980421FDF7C1
:1049A00067FE02980821FDF763FE02980C21FDF7CF
:1049B0005FFE3220069005900490039040F2A8100C
:1049C000C2F2000040F2CC21C2F200011E22FDF72B
:1049D00035FF00F029F8FFE700F026F84FF47A7071
:1049E000FCF7CCFAF8E7000040F2CC20C2F200005D
:1049F0000078A52817D1FFE740F2CC20C2F20000D2
:104A0000817940F2F022C2F200021170C17940F2C5
:104A1000F422C2F200021170007A40F2C821C2F200
:104A200000010870FFE7704780B540F2F020C2F245
:104A30000000016840F2F420C2F20000026840F277
:104A4000C820C2F20000036845F26A30C0F60000D8
:104A500000F002F880BD00000FB4054B10B503A9AB
:104A6000044A029800F0DAF810BC5DF814FB00006C
:104A7000314900080000002002E008C8121F08C1E8
:104A8000002AFAD170477047002001E001C1121FCF
:104A9000002AFBD1704700002DE9FF5F82B00021A2
:104AA000DDE90430020DDDF840B0034318D044F6D0
:104AB0001050A2F2FF3242431514119801281FD062
:104AC000A5EB0B00401C5FEA000A4FF000064E4FBA
:104AD000DFF83891B046504615D5CAF1000413E00E
:104AE000119801244AA3012801D16FEA0B01029811
:104AF000119AC0E90031C0E9024206B0BDE8F09F5A
:104B0000CBF10000DFE704460021404A491842EBA0
:104B10000450CDE9001012E0E00707D032463B46D2
:104B200040464946FBF76BFC8046894632463B4689
:104B300010461946FBF763FC06460F466410002C2E
:104B4000EAD1DDE90401DDE90023BAF1000F06DA5C
:104B5000FBF755FC42464B46FBF751FC05E0FBF7E3
:104B6000C0FC42464B46FBF7BCFC04460E46002206
:104B7000284BFBF73DFD03D84FF0FF30014607E01F
:104B80000022254B20463146FBF792FBFBF718FD30
:104B9000102409E0002C0ADB0A220023FBF710FB9B
:104BA000039B30321A55641E50EA0102F2D1641C94
:104BB000039AC4F111031444119A012A03D001226B
:104BC00008430DD10AE0084304D000204FF0110B38
:104BD000119072E7A3EB0B056D1E0DE05B4504DD44
:104BE0004FF0000205F1010504E003DA4FF0000286
:104BF000A5F10105002AECD002981199C0E9023113
:104C0000C0E9004579E70000000014400000F03FD3
:104C1000300000000000F0430000E03F2DE9FF4FAE
:104C200095B09B468946064600250FE2252877D198
:104C300000242746F84A0121059400E0044316F8B1
:104C4000013F203B01FA03F01042F7D130782A28C7
:104C500011D06FF02F033078A0F13002092A16D856
:104C6000059A44F0020402EB820203EB4202104474
:104C7000761C0590EFE759F8042B0592002A03DA19
:104C8000504244F40054059044F00204761C3078FD
:104C90002E2816D116F8010F44F004042A280DD04E
:104CA0006FF02F023078A0F13003092B09D807EB01
:104CB000870302EB4303C718761CF3E759F8047B1C
:104CC000761C30786C280FD006DC4C2817D068286A
:104CD0000DD06A2814D104E0742810D07A280FD19E
:104CE0000DE044F400140AE044F4801401E044F4BC
:104CF00040147278824202D104F58014761C761C2E
:104D0000307866280BD013DC582877D009DC0028CF
:104D100075D04528F6D04628F4D047281AD19DE111
:104D200018E0632835D0642879D0652812D195E140
:104D3000702873D008DC6728F1D069286FD06E28FE
:104D40000DD06F2806D1B5E073282CD0752875D00A
:104D5000782874D05A46179990476D1C75E1C4F3B2
:104D60000250022809D003280DD0D9F800100428D9
:104D70000DD00D6009F1040967E1D9F80010EA17B8
:104D8000C1E90052F6E7D9F800100D80F2E70D7086
:104D9000F0E719F8041B8DF8001000208DF80100D1
:104DA000EA46012003E059F804AB4FF0FF306107F9
:104DB0004FF0000102D40DE008F101018846B9422C
:104DC0000FDA8045F8DB1AF808100029F4D108E062
:104DD00008F1010188468142FADB1AF8081000291F
:104DE000F6D105985B46A0EB080721463846179A8E
:104DF00000F094FA284400EB080507E04DE029E1B3
:104E00000DE01AF8010B5A4617999047B8F10108BE
:104E1000F7D25B4621463846179A13E142E00A2250
:104E20000092C4F302524FF0000A022A08D059F847
:104E300004CB032A4FEAEC710AD00DE029E02AE006
:104E400009F1070121F00702F2E802C1914609E0E9
:104E50000FFA8CFC4FEAEC71042A03D14FFA8CFC58
:104E60004FEAEC71002907DA0A460021DCF1000C58
:104E700061EB02012D2202E0220504D52B228DF8E0
:104E80000420012203E0E20701D02022F7E7904648
:104E900059E00A2102E010220DE010214FF0000A33
:104EA00000910BE010224FF0000A44F004040827A0
:104EB000009203E008224FF0000A0092C4F302526D
:104EC000022A05D059F804CB0021032A08D009E0B2
:104ED00009F1070121F00702F2E802C1914605E05D
:104EE0001FFA8CFC042A01D10CF0FF0C4FF00008D3
:104EF000220728D5702806D0009B83F0100353EAC0
:104F00000A0305D00EE040228DF80420012208E0BB
:104F10005CEA010206D030228DF804208DF80500ED
:104F200002229046009B83F0080353EA0A030AD149
:104F30005CEA010201D1620705D530228DF8042018
:104F40004FF001087F1E582804D034A003900EA80B
:104F500002900DE036A0F9E753466046009AFBF751
:104F60002FF984460398825C0298401E02900270DA
:104F70005CEA0100F0D1029806A9081A00F1200AA3
:104F8000600702D524F4803400E00127574502DD94
:104F9000A7EB0A0000E0002000EB0A010090059852
:104FA0004144401A0590E00306D45B462146179A17
:104FB000059800F0B3F90544002706E001A85A4619
:104FC000C05D179990476D1C7F1C4745F6DBE003D9
:104FD0000CD55B462146179A059800F09FF90544C9
:104FE00004E030205A46179990476D1C0099481EDE
:104FF00000900029F5DC08E0029802995A460078F2
:10500000491C0291179990476D1CBAF10001AAF151
:10501000010AF1DC65E1000009280100303132337A
:1050200034353637383961626364656600000000E4
:1050300030313233343536373839414243444546CE
:105040000000000000F058F90544761C3078002874
:105050007FF4ECAD19B02846BDE8F08F620700D4AC
:10506000062709F1070222F0070CFCE80223E146BB
:1050700003F000485FEA080C02D00FF2702C0DE03C
:105080005FEA045C02D50FF2682C07E05FEAC47C9B
:1050900002D00FF2602C01E0AFF2700C4FF0FF383D
:1050A00023F00043CDF850C065280CD006DC45281D
:1050B00009D046281DD047283DD13DE0662818D0AC
:1050C00067287ED138E00021112F01DB112000E09C
:1050D000781CCDE9000106A90EA8FFF7DDFCDDE98B
:1050E0000F010E9A03910021009207F1010A049129
:1050F0004DE04FF000400097CDE9011006A90EA841
:10510000FFF7CAFCDDE90F0203920E9B1199002202
:10511000DDF80CA00093049211B9791C00EB010A90
:10512000B7EB0A0004D4C0F1FF3007F1010A049084
:10513000AAEB0700019044E0012F00DA01270021CB
:10514000112F01DD112000E03846CDE9000106A94C
:105150000EA8FFF7A1FCDDE90F010E9A03910021D3
:1051600004910092BA4621070CD40399514500DA04
:105170008A46BAF1010F05DD009AAAF10101515CDE
:10518000302908D0B84202DA10F1040F06DA012102
:10519000CDE9011015E0AAF10101E9E7002805DCDD
:1051A000049901440491AAEB000102E0411C51451D
:1051B00000DD8A460499401A401C01904FF00040DF
:1051C0000290200704D40198504501DBCDF80480FB
:1051D00000208DF84F0002980DF14F07B0F1004FFD
:1051E00025D02B200E9002984FF0020800280CDAF0
:1051F000404202902D200E9007E00A210298FBF712
:1052000022F83031029007F8011DB8F10001A8F131
:105210000108F2DC02980028EFD1791E0E98087080
:10522000307800F0200040F0450007F8020D12A889
:10523000C01B00F107081498007800B1012000EBB2
:105240000A01019801EBE07105984144401A401EA3
:105250000590E00306D45B462146179A059800F0B6
:105260005DF805441498007818B15A46179990478C
:105270006D1CE00324D55B462146179A059800F083
:105280004DF805441CE00498002807DBDDE9030124
:10529000884203DD0098405C179901E0179930209F
:1052A0005A469047049805F10105401C0490019866
:1052B000401E019004D12E205A46179990476D1C2C
:1052C000BAF10001AAF1010ADDDC05E017F8010BD3
:1052D0005A46179990476D1CB8F10001A8F10108D2
:1052E000F4DC5B462146179A0598ABE62D000000DA
:1052F0002B000000200000002DE9F04104460025AD
:105300001E461746880404D405E039462020B047DD
:105310006D1C641EF9D52846BDE8F0812DE9F041E9
:10532000044600251E469046C80301D5302700E0FC
:105330002027880404D505E041463846B0476D1C57
:10534000641EF9D52846BDE8F08100000000000089
:105350000000010203040607080900000000010222
:105360000304000610160006101625642C25642C74
:1053700025640D0A0000000098530008000000207A
:1053800010000000784A0008A85300081000002010
:10539000E8060000884A0008000000000024F4002D
:0853A0000100000010000000F4
:040000050800018965
:00000001FF
